{
  "_format": "hh-sol-artifact-1",
  "contractName": "StableCoin",
  "sourceName": "contracts/StableCoin.sol",
  "abi": [
    {
      "inputs": [
        {
          "internalType": "string",
          "name": "_name",
          "type": "string"
        },
        {
          "internalType": "string",
          "name": "_symbol",
          "type": "string"
        },
        {
          "internalType": "uint256",
          "name": "_premint",
          "type": "uint256"
        }
      ],
      "stateMutability": "nonpayable",
      "type": "constructor"
    },
    {
      "inputs": [],
      "name": "ECDSAInvalidSignature",
      "type": "error"
    },
    {
      "inputs": [
        {
          "internalType": "uint256",
          "name": "length",
          "type": "uint256"
        }
      ],
      "name": "ECDSAInvalidSignatureLength",
      "type": "error"
    },
    {
      "inputs": [
        {
          "internalType": "bytes32",
          "name": "s",
          "type": "bytes32"
        }
      ],
      "name": "ECDSAInvalidSignatureS",
      "type": "error"
    },
    {
      "inputs": [
        {
          "internalType": "address",
          "name": "spender",
          "type": "address"
        },
        {
          "internalType": "uint256",
          "name": "allowance",
          "type": "uint256"
        },
        {
          "internalType": "uint256",
          "name": "needed",
          "type": "uint256"
        }
      ],
      "name": "ERC20InsufficientAllowance",
      "type": "error"
    },
    {
      "inputs": [
        {
          "internalType": "address",
          "name": "sender",
          "type": "address"
        },
        {
          "internalType": "uint256",
          "name": "balance",
          "type": "uint256"
        },
        {
          "internalType": "uint256",
          "name": "needed",
          "type": "uint256"
        }
      ],
      "name": "ERC20InsufficientBalance",
      "type": "error"
    },
    {
      "inputs": [
        {
          "internalType": "address",
          "name": "approver",
          "type": "address"
        }
      ],
      "name": "ERC20InvalidApprover",
      "type": "error"
    },
    {
      "inputs": [
        {
          "internalType": "address",
          "name": "receiver",
          "type": "address"
        }
      ],
      "name": "ERC20InvalidReceiver",
      "type": "error"
    },
    {
      "inputs": [
        {
          "internalType": "address",
          "name": "sender",
          "type": "address"
        }
      ],
      "name": "ERC20InvalidSender",
      "type": "error"
    },
    {
      "inputs": [
        {
          "internalType": "address",
          "name": "spender",
          "type": "address"
        }
      ],
      "name": "ERC20InvalidSpender",
      "type": "error"
    },
    {
      "inputs": [
        {
          "internalType": "uint256",
          "name": "deadline",
          "type": "uint256"
        }
      ],
      "name": "ERC2612ExpiredSignature",
      "type": "error"
    },
    {
      "inputs": [
        {
          "internalType": "address",
          "name": "signer",
          "type": "address"
        },
        {
          "internalType": "address",
          "name": "owner",
          "type": "address"
        }
      ],
      "name": "ERC2612InvalidSigner",
      "type": "error"
    },
    {
      "inputs": [
        {
          "internalType": "address",
          "name": "account",
          "type": "address"
        },
        {
          "internalType": "uint256",
          "name": "currentNonce",
          "type": "uint256"
        }
      ],
      "name": "InvalidAccountNonce",
      "type": "error"
    },
    {
      "inputs": [],
      "name": "InvalidShortString",
      "type": "error"
    },
    {
      "inputs": [
        {
          "internalType": "string",
          "name": "str",
          "type": "string"
        }
      ],
      "name": "StringTooLong",
      "type": "error"
    },
    {
      "anonymous": false,
      "inputs": [
        {
          "indexed": true,
          "internalType": "address",
          "name": "owner",
          "type": "address"
        },
        {
          "indexed": true,
          "internalType": "address",
          "name": "spender",
          "type": "address"
        },
        {
          "indexed": false,
          "internalType": "uint256",
          "name": "value",
          "type": "uint256"
        }
      ],
      "name": "Approval",
      "type": "event"
    },
    {
      "anonymous": false,
      "inputs": [],
      "name": "EIP712DomainChanged",
      "type": "event"
    },
    {
      "anonymous": false,
      "inputs": [
        {
          "indexed": true,
          "internalType": "address",
          "name": "from",
          "type": "address"
        },
        {
          "indexed": true,
          "internalType": "address",
          "name": "to",
          "type": "address"
        },
        {
          "indexed": false,
          "internalType": "uint256",
          "name": "value",
          "type": "uint256"
        }
      ],
      "name": "Transfer",
      "type": "event"
    },
    {
      "inputs": [],
      "name": "DOMAIN_SEPARATOR",
      "outputs": [
        {
          "internalType": "bytes32",
          "name": "",
          "type": "bytes32"
        }
      ],
      "stateMutability": "view",
      "type": "function"
    },
    {
      "inputs": [
        {
          "internalType": "address",
          "name": "owner",
          "type": "address"
        },
        {
          "internalType": "address",
          "name": "spender",
          "type": "address"
        }
      ],
      "name": "allowance",
      "outputs": [
        {
          "internalType": "uint256",
          "name": "",
          "type": "uint256"
        }
      ],
      "stateMutability": "view",
      "type": "function"
    },
    {
      "inputs": [
        {
          "internalType": "address",
          "name": "spender",
          "type": "address"
        },
        {
          "internalType": "uint256",
          "name": "value",
          "type": "uint256"
        }
      ],
      "name": "approve",
      "outputs": [
        {
          "internalType": "bool",
          "name": "",
          "type": "bool"
        }
      ],
      "stateMutability": "nonpayable",
      "type": "function"
    },
    {
      "inputs": [
        {
          "internalType": "address",
          "name": "account",
          "type": "address"
        }
      ],
      "name": "balanceOf",
      "outputs": [
        {
          "internalType": "uint256",
          "name": "",
          "type": "uint256"
        }
      ],
      "stateMutability": "view",
      "type": "function"
    },
    {
      "inputs": [],
      "name": "decimals",
      "outputs": [
        {
          "internalType": "uint8",
          "name": "",
          "type": "uint8"
        }
      ],
      "stateMutability": "view",
      "type": "function"
    },
    {
      "inputs": [],
      "name": "eip712Domain",
      "outputs": [
        {
          "internalType": "bytes1",
          "name": "fields",
          "type": "bytes1"
        },
        {
          "internalType": "string",
          "name": "name",
          "type": "string"
        },
        {
          "internalType": "string",
          "name": "version",
          "type": "string"
        },
        {
          "internalType": "uint256",
          "name": "chainId",
          "type": "uint256"
        },
        {
          "internalType": "address",
          "name": "verifyingContract",
          "type": "address"
        },
        {
          "internalType": "bytes32",
          "name": "salt",
          "type": "bytes32"
        },
        {
          "internalType": "uint256[]",
          "name": "extensions",
          "type": "uint256[]"
        }
      ],
      "stateMutability": "view",
      "type": "function"
    },
    {
      "inputs": [
        {
          "internalType": "address",
          "name": "to",
          "type": "address"
        },
        {
          "internalType": "uint256",
          "name": "amount",
          "type": "uint256"
        }
      ],
      "name": "mint",
      "outputs": [],
      "stateMutability": "nonpayable",
      "type": "function"
    },
    {
      "inputs": [],
      "name": "name",
      "outputs": [
        {
          "internalType": "string",
          "name": "",
          "type": "string"
        }
      ],
      "stateMutability": "view",
      "type": "function"
    },
    {
      "inputs": [
        {
          "internalType": "address",
          "name": "owner",
          "type": "address"
        }
      ],
      "name": "nonces",
      "outputs": [
        {
          "internalType": "uint256",
          "name": "",
          "type": "uint256"
        }
      ],
      "stateMutability": "view",
      "type": "function"
    },
    {
      "inputs": [
        {
          "internalType": "address",
          "name": "owner",
          "type": "address"
        },
        {
          "internalType": "address",
          "name": "spender",
          "type": "address"
        },
        {
          "internalType": "uint256",
          "name": "value",
          "type": "uint256"
        },
        {
          "internalType": "uint256",
          "name": "deadline",
          "type": "uint256"
        },
        {
          "internalType": "uint8",
          "name": "v",
          "type": "uint8"
        },
        {
          "internalType": "bytes32",
          "name": "r",
          "type": "bytes32"
        },
        {
          "internalType": "bytes32",
          "name": "s",
          "type": "bytes32"
        }
      ],
      "name": "permit",
      "outputs": [],
      "stateMutability": "nonpayable",
      "type": "function"
    },
    {
      "inputs": [],
      "name": "symbol",
      "outputs": [
        {
          "internalType": "string",
          "name": "",
          "type": "string"
        }
      ],
      "stateMutability": "view",
      "type": "function"
    },
    {
      "inputs": [],
      "name": "totalSupply",
      "outputs": [
        {
          "internalType": "uint256",
          "name": "",
          "type": "uint256"
        }
      ],
      "stateMutability": "view",
      "type": "function"
    },
    {
      "inputs": [
        {
          "internalType": "address",
          "name": "to",
          "type": "address"
        },
        {
          "internalType": "uint256",
          "name": "value",
          "type": "uint256"
        }
      ],
      "name": "transfer",
      "outputs": [
        {
          "internalType": "bool",
          "name": "",
          "type": "bool"
        }
      ],
      "stateMutability": "nonpayable",
      "type": "function"
    },
    {
      "inputs": [
        {
          "internalType": "address",
          "name": "from",
          "type": "address"
        },
        {
          "internalType": "address",
          "name": "to",
          "type": "address"
        },
        {
          "internalType": "uint256",
          "name": "value",
          "type": "uint256"
        }
      ],
      "name": "transferFrom",
      "outputs": [
        {
          "internalType": "bool",
          "name": "",
          "type": "bool"
        }
      ],
      "stateMutability": "nonpayable",
      "type": "function"
    }
  ],
  "bytecode": "0x61016080604052346104a657611540803803809161001d82856104ab565b83398101906060818303126104a65780516001600160401b0381116104a657826100489183016104f1565b60208201519092906001600160401b0381116104a65760409161006c9184016104f1565b9101519060409283519161008085846104ab565b60018352603160f81b60208401908152825190926001600160401b0382116103a35760035490600182811c9216801561049c575b60208310146103835781601f84931161042c575b50602090601f83116001146103c4576000926103b9575b50508160011b916000199060031b1c1916176003555b80516001600160401b0381116103a357600454600181811c91168015610399575b602082101461038357601f811161031e575b50806020601f82116001146102b8576000916102ad575b508160011b916000199060031b1c1916176004555b61015d81610545565b6101205261016a836106d6565b6101405260208151910120918260e05251902080610100524660a05283519060208201927f8b73c3c69bb8fe3d512ecc4cf759cc79239f7b179b0ffacaa9a75d522b39400f84528583015260608201524660808201523060a082015260a081526101d560c0826104ab565b5190206080523060c0523315610297576002548181018091116102815760025560003381528060205282812082815401905582519182527fddf252ad1be2c89b69c2b068fc378daa952ba7f163c4a11628f55a4df523b3ef60203393a351610d2790816108198239608051816109ec015260a05181610aa9015260c051816109b6015260e05181610a3b01526101005181610a6101526101205181610389015261014051816103b20152f35b634e487b7160e01b600052601160045260246000fd5b63ec442f0560e01b600052600060045260246000fd5b90508201513861013f565b600460009081528181209250601f198416905b818110610306575090836001949392106102ed575b5050811b01600455610154565b84015160001960f88460031b161c1916905538806102e0565b919260206001819286890151815501940192016102cb565b60046000527f8a35acfbc15ff81a39ae7d344fd709f28e8600b4aa8c65c6b64bfe7fe36bd19b601f830160051c81019160208410610379575b601f0160051c01905b81811061036d5750610128565b60008155600101610360565b9091508190610357565b634e487b7160e01b600052602260045260246000fd5b90607f1690610116565b634e487b7160e01b600052604160045260246000fd5b0151905038806100df565b600360009081528281209350601f198516905b81811061041457509084600195949392106103fb575b505050811b016003556100f5565b015160001960f88460031b161c191690553880806103ed565b929360206001819287860151815501950193016103d7565b60036000529091507fc2575a0e9e593c00f959f8c92f12db2869c3395a3b0502d05e2516446f71f85b601f840160051c81019160208510610492575b90601f859493920160051c01905b81811061048357506100c8565b60008155849350600101610476565b9091508190610468565b91607f16916100b4565b600080fd5b601f909101601f19168101906001600160401b038211908210176103a357604052565b60005b8381106104e15750506000910152565b81810151838201526020016104d1565b81601f820112156104a65780516001600160401b0381116103a35760405192610524601f8301601f1916602001856104ab565b818452602082840101116104a65761054291602080850191016104ce565b90565b908151602081106000146105c0575090601f815111610581576020815191015160208210610571571790565b6000198260200360031b1b161790565b6044604051809263305a27a960e01b8252602060048301526105b281518092816024860152602086860191016104ce565b601f01601f19168101030190fd5b6001600160401b0381116103a357600554600181811c911680156106cc575b602082101461038357601f8111610696575b50602092601f82116001146106315792819293600092610626575b50508160011b916000199060031b1c19161760055560ff90565b01519050388061060c565b601f198216936005600052806000209160005b86811061067e5750836001959610610665575b505050811b0160055560ff90565b015160001960f88460031b161c19169055388080610657565b91926020600181928685015181550194019201610644565b6005600052601f6020600020910160051c810190601f830160051c015b8181106106c057506105f1565b600081556001016106b3565b90607f16906105df565b90815160208110600014610702575090601f815111610581576020815191015160208210610571571790565b6001600160401b0381116103a357600654600181811c9116801561080e575b602082101461038357601f81116107d8575b50602092601f82116001146107735792819293600092610768575b50508160011b916000199060031b1c19161760065560ff90565b01519050388061074e565b601f198216936006600052806000209160005b8681106107c057508360019596106107a7575b505050811b0160065560ff90565b015160001960f88460031b161c19169055388080610799565b91926020600181928685015181550194019201610786565b6006600052601f6020600020910160051c810190601f830160051c015b8181106108025750610733565b600081556001016107f5565b90607f169061072156fe608080604052600436101561001357600080fd5b60003560e01c90816306fdde03146106fd57508063095ea7b3146106d757806318160ddd146106b957806323b872dd146105cc578063313ce567146105b05780633644e5151461058d57806340c10f19146104e157806370a08231146104a75780637ecebe001461046d57806384b0196e1461037057806395d89b411461028b578063a9059cbb1461025a578063d505accf1461010f5763dd62ed3e146100b957600080fd5b3461010a57604036600319011261010a576100d26107e3565b6100da6107f9565b6001600160a01b039182166000908152600160209081526040808320949093168252928352819020549051908152f35b600080fd5b3461010a5760e036600319011261010a576101286107e3565b6101306107f9565b604435906064359260843560ff8116810361010a578442116102455761020661020f9160018060a01b038416968760005260076020526040600020908154916001830190556040519060208201927f6e71edae12b1b97f4d1f60370fef10105fa2faae0126114a169c64845d6126c984528a604084015260018060a01b038916606084015289608084015260a083015260c082015260c081526101d460e0826108cc565b5190206101df6109b3565b906040519161190160f01b83526002830152602282015260c43591604260a4359220610bd4565b90929192610c69565b6001600160a01b031684810361022c575061022a9350610acf565b005b84906325c0072360e11b60005260045260245260446000fd5b8463313c898160e11b60005260045260246000fd5b3461010a57604036600319011261010a576102806102766107e3565b6024359033610904565b602060405160018152f35b3461010a57600036600319011261010a5760405160006004546102ad8161080f565b808452906001811690811561034c57506001146102ed575b6102e9836102d5818503826108cc565b6040519182916020835260208301906107a2565b0390f35b600460009081527f8a35acfbc15ff81a39ae7d344fd709f28e8600b4aa8c65c6b64bfe7fe36bd19b939250905b808210610332575090915081016020016102d56102c5565b91926001816020925483858801015201910190929161031a565b60ff191660208086019190915291151560051b840190910191506102d590506102c5565b3461010a57600036600319011261010a5761040f6103ad7f0000000000000000000000000000000000000000000000000000000000000000610b36565b6103d67f0000000000000000000000000000000000000000000000000000000000000000610b9d565b602061041d604051926103e983856108cc565b600084526000368137604051958695600f60f81b875260e08588015260e08701906107a2565b9085820360408701526107a2565b466060850152306080850152600060a085015283810360c085015281808451928381520193019160005b82811061045657505050500390f35b835185528695509381019392810192600101610447565b3461010a57602036600319011261010a576001600160a01b0361048e6107e3565b1660005260076020526020604060002054604051908152f35b3461010a57602036600319011261010a576001600160a01b036104c86107e3565b1660005260006020526020604060002054604051908152f35b3461010a57604036600319011261010a576104fa6107e3565b602435906001600160a01b031680156105775760025491808301809311610561576020926002557fddf252ad1be2c89b69c2b068fc378daa952ba7f163c4a11628f55a4df523b3ef600093849284845283825260408420818154019055604051908152a380f35b634e487b7160e01b600052601160045260246000fd5b63ec442f0560e01b600052600060045260246000fd5b3461010a57600036600319011261010a5760206105a86109b3565b604051908152f35b3461010a57600036600319011261010a57602060405160068152f35b3461010a57606036600319011261010a576105e56107e3565b6105ed6107f9565b6001600160a01b038216600081815260016020908152604080832033845290915290205490926044359291600019811061062d575b506102809350610904565b83811061069c57841561068657331561067057610280946000526001602052604060002060018060a01b0333166000526020528360406000209103905584610622565b634a1406b160e11b600052600060045260246000fd5b63e602df0560e01b600052600060045260246000fd5b8390637dc7a0d960e11b6000523360045260245260445260646000fd5b3461010a57600036600319011261010a576020600254604051908152f35b3461010a57604036600319011261010a576102806106f36107e3565b6024359033610acf565b3461010a57600036600319011261010a57600060035461071c8161080f565b808452906001811690811561034c5750600114610743576102e9836102d5818503826108cc565b600360009081527fc2575a0e9e593c00f959f8c92f12db2869c3395a3b0502d05e2516446f71f85b939250905b808210610788575090915081016020016102d56102c5565b919260018160209254838588010152019101909291610770565b919082519283825260005b8481106107ce575050826000602080949584010152601f8019910116010190565b806020809284010151828286010152016107ad565b600435906001600160a01b038216820361010a57565b602435906001600160a01b038216820361010a57565b90600182811c9216801561083f575b602083101461082957565b634e487b7160e01b600052602260045260246000fd5b91607f169161081e565b600092918154916108598361080f565b80835292600181169081156108af575060011461087557505050565b60009081526020812093945091925b838310610895575060209250010190565b600181602092949394548385870101520191019190610884565b915050602093945060ff929192191683830152151560051b010190565b90601f8019910116810190811067ffffffffffffffff8211176108ee57604052565b634e487b7160e01b600052604160045260246000fd5b6001600160a01b031690811561099d576001600160a01b03169182156105775760008281528060205260408120548281106109835791604082827fddf252ad1be2c89b69c2b068fc378daa952ba7f163c4a11628f55a4df523b3ef958760209652828652038282205586815280845220818154019055604051908152a3565b916064928463391434e360e21b8452600452602452604452fd5b634b637e8f60e11b600052600060045260246000fd5b307f00000000000000000000000000000000000000000000000000000000000000006001600160a01b03161480610aa6575b15610a0e577f000000000000000000000000000000000000000000000000000000000000000090565b60405160208101907f8b73c3c69bb8fe3d512ecc4cf759cc79239f7b179b0ffacaa9a75d522b39400f82527f000000000000000000000000000000000000000000000000000000000000000060408201527f000000000000000000000000000000000000000000000000000000000000000060608201524660808201523060a082015260a08152610aa060c0826108cc565b51902090565b507f000000000000000000000000000000000000000000000000000000000000000046146109e5565b6001600160a01b0316908115610686576001600160a01b03169182156106705760207f8c5be1e5ebec7d5bd14f71427d1e84f3dd0314c0f7b2291e5b200ac8c7c3b925918360005260018252604060002085600052825280604060002055604051908152a3565b60ff8114610b805760ff811690601f8211610b6f576040805192610b5a82856108cc565b6020808552840191601f190136833783525290565b632cd44ac360e21b60005260046000fd5b50604051610b9a81610b93816005610849565b03826108cc565b90565b60ff8114610bc15760ff811690601f8211610b6f576040805192610b5a82856108cc565b50604051610b9a81610b93816006610849565b91907f7fffffffffffffffffffffffffffffff5d576e7357a4501ddfe92f46681b20a08411610c5d579160209360809260ff60009560405194855216868401526040830152606082015282805260015afa15610c51576000516001600160a01b03811615610c455790600090600090565b50600090600190600090565b6040513d6000823e3d90fd5b50505060009160039190565b9190916004811015610cdb5780610c7f57509050565b600060018203610c9a5763f645eedf60e01b60005260046000fd5b5060028103610cb8578263fce698f760e01b60005260045260246000fd5b9091600360009214610cc8575050565b6335e2f38360e21b825260045260249150fd5b634e487b7160e01b600052602160045260246000fdfea2646970667358221220a5d580a24610013654be1e7390a31e3b68a98b9ceface7aee56ede9f69c4493564736f6c634300081c0033",
  "linkReferences": {},
  "deployedLinkReferences": {}
}