{
  "_format": "hh-sol-artifact-1",
  "contractName": "VideoRenderTasks",
  "sourceName": "contracts/VideoRenderTasks.sol",
  "abi": [
    {
      "inputs": [
        {
          "internalType": "contract ModuleManager",
          "name": "_moduleManager",
          "type": "address"
        },
        {
          "internalType": "contract WorkerRegistry",
          "name": "_workerRegistry",
          "type": "address"
        }
      ],
      "stateMutability": "nonpayable",
      "type": "constructor"
    },
    {
      "inputs": [
        {
          "internalType": "address",
          "name": "owner",
          "type": "address"
        }
      ],
      "name": "OwnableInvalidOwner",
      "type": "error"
    },
    {
      "inputs": [
        {
          "internalType": "address",
          "name": "account",
          "type": "address"
        }
      ],
      "name": "OwnableUnauthorizedAccount",
      "type": "error"
    },
    {
      "inputs": [],
      "name": "ReentrancyGuardReentrantCall",
      "type": "error"
    },
    {
      "inputs": [
        {
          "internalType": "address",
          "name": "token",
          "type": "address"
        }
      ],
      "name": "SafeERC20FailedOperation",
      "type": "error"
    },
    {
      "anonymous": false,
      "inputs": [
        {
          "indexed": true,
          "internalType": "address",
          "name": "oracle",
          "type": "address"
        },
        {
          "indexed": false,
          "internalType": "bool",
          "name": "enabled",
          "type": "bool"
        }
      ],
      "name": "OracleUpdated",
      "type": "event"
    },
    {
      "anonymous": false,
      "inputs": [
        {
          "indexed": true,
          "internalType": "address",
          "name": "previousOwner",
          "type": "address"
        },
        {
          "indexed": true,
          "internalType": "address",
          "name": "newOwner",
          "type": "address"
        }
      ],
      "name": "OwnershipTransferred",
      "type": "event"
    },
    {
      "anonymous": false,
      "inputs": [
        {
          "indexed": true,
          "internalType": "uint256",
          "name": "taskId",
          "type": "uint256"
        },
        {
          "indexed": false,
          "internalType": "enum VideoRenderTasks.ParentTaskStatus",
          "name": "status",
          "type": "uint8"
        },
        {
          "indexed": false,
          "internalType": "uint64",
          "name": "completedAt",
          "type": "uint64"
        }
      ],
      "name": "TaskClosed",
      "type": "event"
    },
    {
      "anonymous": false,
      "inputs": [
        {
          "indexed": true,
          "internalType": "uint256",
          "name": "taskId",
          "type": "uint256"
        },
        {
          "indexed": true,
          "internalType": "address",
          "name": "creator",
          "type": "address"
        },
        {
          "indexed": true,
          "internalType": "bytes32",
          "name": "configId",
          "type": "bytes32"
        },
        {
          "indexed": false,
          "internalType": "string",
          "name": "animationUrl",
          "type": "string"
        },
        {
          "indexed": false,
          "internalType": "uint32",
          "name": "startFrame",
          "type": "uint32"
        },
        {
          "indexed": false,
          "internalType": "uint32",
          "name": "endFrame",
          "type": "uint32"
        },
        {
          "indexed": false,
          "internalType": "uint32",
          "name": "threads",
          "type": "uint32"
        },
        {
          "indexed": false,
          "internalType": "uint256",
          "name": "rewardTotal",
          "type": "uint256"
        }
      ],
      "name": "TaskCreated",
      "type": "event"
    },
    {
      "anonymous": false,
      "inputs": [
        {
          "indexed": true,
          "internalType": "uint256",
          "name": "taskId",
          "type": "uint256"
        },
        {
          "indexed": true,
          "internalType": "uint32",
          "name": "threadId",
          "type": "uint32"
        },
        {
          "indexed": true,
          "internalType": "address",
          "name": "proposer",
          "type": "address"
        },
        {
          "indexed": false,
          "internalType": "uint256",
          "name": "winnerRewardRefunded",
          "type": "uint256"
        },
        {
          "indexed": false,
          "internalType": "uint256",
          "name": "stakeSlashed",
          "type": "uint256"
        }
      ],
      "name": "ThreadCancelled",
      "type": "event"
    },
    {
      "anonymous": false,
      "inputs": [
        {
          "indexed": true,
          "internalType": "uint256",
          "name": "taskId",
          "type": "uint256"
        },
        {
          "indexed": true,
          "internalType": "uint32",
          "name": "threadId",
          "type": "uint32"
        },
        {
          "indexed": true,
          "internalType": "address",
          "name": "proposer",
          "type": "address"
        },
        {
          "indexed": false,
          "internalType": "uint256",
          "name": "winnerReward",
          "type": "uint256"
        }
      ],
      "name": "ThreadCompleted",
      "type": "event"
    },
    {
      "anonymous": false,
      "inputs": [
        {
          "indexed": true,
          "internalType": "uint256",
          "name": "taskId",
          "type": "uint256"
        },
        {
          "indexed": true,
          "internalType": "uint32",
          "name": "threadId",
          "type": "uint32"
        },
        {
          "indexed": false,
          "internalType": "uint32",
          "name": "startFrame",
          "type": "uint32"
        },
        {
          "indexed": false,
          "internalType": "uint32",
          "name": "endFrame",
          "type": "uint32"
        },
        {
          "indexed": false,
          "internalType": "uint256",
          "name": "reward",
          "type": "uint256"
        }
      ],
      "name": "ThreadCreated",
      "type": "event"
    },
    {
      "anonymous": false,
      "inputs": [
        {
          "indexed": true,
          "internalType": "uint256",
          "name": "taskId",
          "type": "uint256"
        },
        {
          "indexed": true,
          "internalType": "uint32",
          "name": "threadId",
          "type": "uint32"
        },
        {
          "indexed": true,
          "internalType": "address",
          "name": "proposer",
          "type": "address"
        },
        {
          "indexed": false,
          "internalType": "uint256",
          "name": "validatorsShare",
          "type": "uint256"
        },
        {
          "indexed": false,
          "internalType": "uint256",
          "name": "winnerShare",
          "type": "uint256"
        }
      ],
      "name": "ThreadSolutionAcceptedOnChain",
      "type": "event"
    },
    {
      "anonymous": false,
      "inputs": [
        {
          "indexed": true,
          "internalType": "uint256",
          "name": "taskId",
          "type": "uint256"
        },
        {
          "indexed": true,
          "internalType": "uint32",
          "name": "threadId",
          "type": "uint32"
        },
        {
          "indexed": true,
          "internalType": "address",
          "name": "proposer",
          "type": "address"
        },
        {
          "indexed": false,
          "internalType": "bytes32",
          "name": "solutionRoot",
          "type": "bytes32"
        }
      ],
      "name": "ThreadSolutionProposed",
      "type": "event"
    },
    {
      "anonymous": false,
      "inputs": [
        {
          "indexed": true,
          "internalType": "uint256",
          "name": "taskId",
          "type": "uint256"
        },
        {
          "indexed": true,
          "internalType": "uint32",
          "name": "threadId",
          "type": "uint32"
        },
        {
          "indexed": true,
          "internalType": "address",
          "name": "validator",
          "type": "address"
        },
        {
          "indexed": false,
          "internalType": "uint32",
          "name": "framesValidated",
          "type": "uint32"
        }
      ],
      "name": "ThreadValidatorSubmitted",
      "type": "event"
    },
    {
      "anonymous": false,
      "inputs": [
        {
          "indexed": true,
          "internalType": "uint256",
          "name": "taskId",
          "type": "uint256"
        },
        {
          "indexed": true,
          "internalType": "uint32",
          "name": "threadId",
          "type": "uint32"
        },
        {
          "indexed": true,
          "internalType": "address",
          "name": "worker",
          "type": "address"
        }
      ],
      "name": "WorkerRegisteredForThread",
      "type": "event"
    },
    {
      "inputs": [],
      "name": "MODULE_KEY",
      "outputs": [
        {
          "internalType": "bytes32",
          "name": "",
          "type": "bytes32"
        }
      ],
      "stateMutability": "view",
      "type": "function"
    },
    {
      "inputs": [],
      "name": "WINNER_SHARE_BP",
      "outputs": [
        {
          "internalType": "uint16",
          "name": "",
          "type": "uint16"
        }
      ],
      "stateMutability": "view",
      "type": "function"
    },
    {
      "inputs": [
        {
          "internalType": "address",
          "name": "",
          "type": "address"
        }
      ],
      "name": "activeThreadsCount",
      "outputs": [
        {
          "internalType": "uint256",
          "name": "",
          "type": "uint256"
        }
      ],
      "stateMutability": "view",
      "type": "function"
    },
    {
      "inputs": [
        {
          "internalType": "string",
          "name": "animationUrl",
          "type": "string"
        },
        {
          "internalType": "bytes32",
          "name": "configId",
          "type": "bytes32"
        },
        {
          "internalType": "uint32",
          "name": "startFrame",
          "type": "uint32"
        },
        {
          "internalType": "uint32",
          "name": "endFrame",
          "type": "uint32"
        },
        {
          "internalType": "uint32",
          "name": "threadsCount",
          "type": "uint32"
        },
        {
          "internalType": "uint256",
          "name": "reward",
          "type": "uint256"
        }
      ],
      "name": "createTask",
      "outputs": [
        {
          "internalType": "uint256",
          "name": "taskId",
          "type": "uint256"
        }
      ],
      "stateMutability": "nonpayable",
      "type": "function"
    },
    {
      "inputs": [],
      "name": "getModuleConfig",
      "outputs": [
        {
          "components": [
            {
              "internalType": "bool",
              "name": "enabled",
              "type": "bool"
            },
            {
              "internalType": "uint256",
              "name": "minStake",
              "type": "uint256"
            },
            {
              "internalType": "int256",
              "name": "minReputation",
              "type": "int256"
            },
            {
              "internalType": "uint8",
              "name": "maxWorkersPerTask",
              "type": "uint8"
            },
            {
              "internalType": "uint8",
              "name": "minValidations",
              "type": "uint8"
            },
            {
              "internalType": "uint8",
              "name": "maxActiveTasksPerWorker",
              "type": "uint8"
            },
            {
              "internalType": "uint8",
              "name": "maxWorkersPerThread",
              "type": "uint8"
            },
            {
              "internalType": "uint8",
              "name": "maxActiveThreadsPerWorker",
              "type": "uint8"
            },
            {
              "internalType": "uint32",
              "name": "minFramesPerValidation",
              "type": "uint32"
            },
            {
              "internalType": "uint32",
              "name": "solutionRevealTimeout",
              "type": "uint32"
            },
            {
              "internalType": "uint32",
              "name": "uploadTimeout",
              "type": "uint32"
            }
          ],
          "internalType": "struct ModuleManager.ModuleConfig",
          "name": "",
          "type": "tuple"
        }
      ],
      "stateMutability": "view",
      "type": "function"
    },
    {
      "inputs": [
        {
          "internalType": "uint256",
          "name": "taskId",
          "type": "uint256"
        },
        {
          "internalType": "uint32",
          "name": "threadId",
          "type": "uint32"
        }
      ],
      "name": "getThreadWorkers",
      "outputs": [
        {
          "internalType": "address[]",
          "name": "",
          "type": "address[]"
        }
      ],
      "stateMutability": "view",
      "type": "function"
    },
    {
      "inputs": [],
      "name": "globalStats",
      "outputs": [
        {
          "internalType": "uint64",
          "name": "totalTasksCreated",
          "type": "uint64"
        },
        {
          "internalType": "uint64",
          "name": "totalTasksCompleted",
          "type": "uint64"
        },
        {
          "internalType": "uint64",
          "name": "totalTasksCancelled",
          "type": "uint64"
        },
        {
          "internalType": "uint64",
          "name": "totalThreadsCreated",
          "type": "uint64"
        },
        {
          "internalType": "uint64",
          "name": "totalThreadsCompleted",
          "type": "uint64"
        },
        {
          "internalType": "uint64",
          "name": "totalThreadsCancelled",
          "type": "uint64"
        },
        {
          "internalType": "uint64",
          "name": "totalFramesRendered",
          "type": "uint64"
        },
        {
          "internalType": "uint256",
          "name": "totalRewardDistributed",
          "type": "uint256"
        },
        {
          "internalType": "uint256",
          "name": "totalTaskDuration",
          "type": "uint256"
        }
      ],
      "stateMutability": "view",
      "type": "function"
    },
    {
      "inputs": [
        {
          "internalType": "address",
          "name": "",
          "type": "address"
        }
      ],
      "name": "hasJoinedAnyThread",
      "outputs": [
        {
          "internalType": "bool",
          "name": "",
          "type": "bool"
        }
      ],
      "stateMutability": "view",
      "type": "function"
    },
    {
      "inputs": [
        {
          "internalType": "address",
          "name": "",
          "type": "address"
        }
      ],
      "name": "isOracle",
      "outputs": [
        {
          "internalType": "bool",
          "name": "",
          "type": "bool"
        }
      ],
      "stateMutability": "view",
      "type": "function"
    },
    {
      "inputs": [
        {
          "internalType": "uint256",
          "name": "taskId",
          "type": "uint256"
        },
        {
          "internalType": "uint32",
          "name": "threadId",
          "type": "uint32"
        }
      ],
      "name": "markThreadUploadVerified",
      "outputs": [],
      "stateMutability": "nonpayable",
      "type": "function"
    },
    {
      "inputs": [],
      "name": "moduleManager",
      "outputs": [
        {
          "internalType": "contract ModuleManager",
          "name": "",
          "type": "address"
        }
      ],
      "stateMutability": "view",
      "type": "function"
    },
    {
      "inputs": [],
      "name": "nextTaskId",
      "outputs": [
        {
          "internalType": "uint256",
          "name": "",
          "type": "uint256"
        }
      ],
      "stateMutability": "view",
      "type": "function"
    },
    {
      "inputs": [],
      "name": "owner",
      "outputs": [
        {
          "internalType": "address",
          "name": "",
          "type": "address"
        }
      ],
      "stateMutability": "view",
      "type": "function"
    },
    {
      "inputs": [
        {
          "internalType": "uint256",
          "name": "taskId",
          "type": "uint256"
        },
        {
          "internalType": "uint32",
          "name": "threadId",
          "type": "uint32"
        }
      ],
      "name": "penalizeThreadNonUploader",
      "outputs": [],
      "stateMutability": "nonpayable",
      "type": "function"
    },
    {
      "inputs": [
        {
          "internalType": "uint256",
          "name": "taskId",
          "type": "uint256"
        },
        {
          "internalType": "uint32",
          "name": "threadId",
          "type": "uint32"
        },
        {
          "internalType": "bytes32",
          "name": "solutionRoot",
          "type": "bytes32"
        }
      ],
      "name": "proposeThreadSolution",
      "outputs": [],
      "stateMutability": "nonpayable",
      "type": "function"
    },
    {
      "inputs": [
        {
          "internalType": "uint256",
          "name": "taskId",
          "type": "uint256"
        },
        {
          "internalType": "uint32",
          "name": "threadId",
          "type": "uint32"
        }
      ],
      "name": "registerForThread",
      "outputs": [],
      "stateMutability": "nonpayable",
      "type": "function"
    },
    {
      "inputs": [],
      "name": "renounceOwnership",
      "outputs": [],
      "stateMutability": "nonpayable",
      "type": "function"
    },
    {
      "inputs": [],
      "name": "rewardToken",
      "outputs": [
        {
          "internalType": "contract IERC20",
          "name": "",
          "type": "address"
        }
      ],
      "stateMutability": "view",
      "type": "function"
    },
    {
      "inputs": [
        {
          "internalType": "address",
          "name": "oracle",
          "type": "address"
        },
        {
          "internalType": "bool",
          "name": "enabled",
          "type": "bool"
        }
      ],
      "name": "setOracle",
      "outputs": [],
      "stateMutability": "nonpayable",
      "type": "function"
    },
    {
      "inputs": [
        {
          "internalType": "uint256",
          "name": "taskId",
          "type": "uint256"
        },
        {
          "internalType": "uint32",
          "name": "threadId",
          "type": "uint32"
        },
        {
          "internalType": "uint32[]",
          "name": "frameIndices",
          "type": "uint32[]"
        },
        {
          "internalType": "bytes32[]",
          "name": "frameHashes",
          "type": "bytes32[]"
        },
        {
          "internalType": "bytes32[][]",
          "name": "proofs",
          "type": "bytes32[][]"
        }
      ],
      "name": "submitThreadValidation",
      "outputs": [],
      "stateMutability": "nonpayable",
      "type": "function"
    },
    {
      "inputs": [
        {
          "internalType": "uint256",
          "name": "",
          "type": "uint256"
        }
      ],
      "name": "tasks",
      "outputs": [
        {
          "internalType": "address",
          "name": "creator",
          "type": "address"
        },
        {
          "internalType": "string",
          "name": "animationUrl",
          "type": "string"
        },
        {
          "internalType": "bytes32",
          "name": "configId",
          "type": "bytes32"
        },
        {
          "internalType": "uint256",
          "name": "rewardTotal",
          "type": "uint256"
        },
        {
          "internalType": "uint32",
          "name": "startFrame",
          "type": "uint32"
        },
        {
          "internalType": "uint32",
          "name": "endFrame",
          "type": "uint32"
        },
        {
          "internalType": "uint32",
          "name": "threads",
          "type": "uint32"
        },
        {
          "internalType": "enum VideoRenderTasks.ParentTaskStatus",
          "name": "status",
          "type": "uint8"
        },
        {
          "internalType": "uint64",
          "name": "createdAt",
          "type": "uint64"
        },
        {
          "internalType": "uint64",
          "name": "completedAt",
          "type": "uint64"
        },
        {
          "internalType": "uint32",
          "name": "threadsCompleted",
          "type": "uint32"
        },
        {
          "internalType": "uint32",
          "name": "threadsCancelled",
          "type": "uint32"
        }
      ],
      "stateMutability": "view",
      "type": "function"
    },
    {
      "inputs": [
        {
          "internalType": "uint256",
          "name": "",
          "type": "uint256"
        },
        {
          "internalType": "uint32",
          "name": "",
          "type": "uint32"
        },
        {
          "internalType": "address",
          "name": "",
          "type": "address"
        }
      ],
      "name": "threadWorkerInfo",
      "outputs": [
        {
          "internalType": "enum VideoRenderTasks.WorkerThreadStatus",
          "name": "status",
          "type": "uint8"
        },
        {
          "internalType": "bool",
          "name": "exists",
          "type": "bool"
        }
      ],
      "stateMutability": "view",
      "type": "function"
    },
    {
      "inputs": [
        {
          "internalType": "uint256",
          "name": "",
          "type": "uint256"
        },
        {
          "internalType": "uint32",
          "name": "",
          "type": "uint32"
        },
        {
          "internalType": "uint256",
          "name": "",
          "type": "uint256"
        }
      ],
      "name": "threadWorkers",
      "outputs": [
        {
          "internalType": "address",
          "name": "",
          "type": "address"
        }
      ],
      "stateMutability": "view",
      "type": "function"
    },
    {
      "inputs": [
        {
          "internalType": "uint256",
          "name": "",
          "type": "uint256"
        },
        {
          "internalType": "uint32",
          "name": "",
          "type": "uint32"
        }
      ],
      "name": "threads",
      "outputs": [
        {
          "internalType": "uint32",
          "name": "startFrame",
          "type": "uint32"
        },
        {
          "internalType": "uint32",
          "name": "endFrame",
          "type": "uint32"
        },
        {
          "internalType": "uint256",
          "name": "reward",
          "type": "uint256"
        },
        {
          "internalType": "enum VideoRenderTasks.ThreadStatus",
          "name": "status",
          "type": "uint8"
        },
        {
          "internalType": "uint64",
          "name": "createdAt",
          "type": "uint64"
        },
        {
          "internalType": "uint64",
          "name": "solutionCommittedAt",
          "type": "uint64"
        },
        {
          "internalType": "uint64",
          "name": "uploadDeadline",
          "type": "uint64"
        },
        {
          "internalType": "uint64",
          "name": "completedAt",
          "type": "uint64"
        },
        {
          "internalType": "bytes32",
          "name": "solutionRoot",
          "type": "bytes32"
        },
        {
          "internalType": "address",
          "name": "solutionProposer",
          "type": "address"
        },
        {
          "internalType": "bool",
          "name": "solutionAccepted",
          "type": "bool"
        }
      ],
      "stateMutability": "view",
      "type": "function"
    },
    {
      "inputs": [],
      "name": "totalUniqueWorkers",
      "outputs": [
        {
          "internalType": "uint64",
          "name": "",
          "type": "uint64"
        }
      ],
      "stateMutability": "view",
      "type": "function"
    },
    {
      "inputs": [
        {
          "internalType": "address",
          "name": "newOwner",
          "type": "address"
        }
      ],
      "name": "transferOwnership",
      "outputs": [],
      "stateMutability": "nonpayable",
      "type": "function"
    },
    {
      "inputs": [
        {
          "internalType": "uint256",
          "name": "",
          "type": "uint256"
        },
        {
          "internalType": "uint32",
          "name": "",
          "type": "uint32"
        },
        {
          "internalType": "address",
          "name": "",
          "type": "address"
        }
      ],
      "name": "validatorFramesCount",
      "outputs": [
        {
          "internalType": "uint32",
          "name": "",
          "type": "uint32"
        }
      ],
      "stateMutability": "view",
      "type": "function"
    },
    {
      "inputs": [
        {
          "internalType": "uint256",
          "name": "",
          "type": "uint256"
        },
        {
          "internalType": "uint32",
          "name": "",
          "type": "uint32"
        },
        {
          "internalType": "address",
          "name": "",
          "type": "address"
        }
      ],
      "name": "validatorMeetsMinFrames",
      "outputs": [
        {
          "internalType": "bool",
          "name": "",
          "type": "bool"
        }
      ],
      "stateMutability": "view",
      "type": "function"
    },
    {
      "inputs": [
        {
          "internalType": "uint256",
          "name": "",
          "type": "uint256"
        },
        {
          "internalType": "uint32",
          "name": "",
          "type": "uint32"
        }
      ],
      "name": "validatorsWithEnoughFrames",
      "outputs": [
        {
          "internalType": "uint32",
          "name": "",
          "type": "uint32"
        }
      ],
      "stateMutability": "view",
      "type": "function"
    },
    {
      "inputs": [
        {
          "internalType": "uint256",
          "name": "",
          "type": "uint256"
        },
        {
          "internalType": "uint32",
          "name": "",
          "type": "uint32"
        },
        {
          "internalType": "address",
          "name": "",
          "type": "address"
        }
      ],
      "name": "workerRegisteredAt",
      "outputs": [
        {
          "internalType": "uint64",
          "name": "",
          "type": "uint64"
        }
      ],
      "stateMutability": "view",
      "type": "function"
    },
    {
      "inputs": [],
      "name": "workerRegistry",
      "outputs": [
        {
          "internalType": "contract WorkerRegistry",
          "name": "",
          "type": "address"
        }
      ],
      "stateMutability": "view",
      "type": "function"
    },
    {
      "inputs": [
        {
          "internalType": "address",
          "name": "",
          "type": "address"
        }
      ],
      "name": "workerStats",
      "outputs": [
        {
          "internalType": "uint64",
          "name": "threadsParticipated",
          "type": "uint64"
        },
        {
          "internalType": "uint64",
          "name": "threadsWon",
          "type": "uint64"
        },
        {
          "internalType": "uint64",
          "name": "framesRendered",
          "type": "uint64"
        },
        {
          "internalType": "uint64",
          "name": "framesValidated",
          "type": "uint64"
        },
        {
          "internalType": "uint256",
          "name": "totalRewardEarned",
          "type": "uint256"
        },
        {
          "internalType": "uint256",
          "name": "totalRenderTime",
          "type": "uint256"
        }
      ],
      "stateMutability": "view",
      "type": "function"
    }
  ],
  "bytecode": "0x60e080604052346101ab57604081613edc803803809161001f82856101b0565b8339810103126101ab578051906001600160a01b038216908183036101ab5760200151916001600160a01b03831683036101ab57600160005533156101955760018054336001600160a01b03198216811790925560405194602094869460049486949293926001600160a01b03167f8be0079c531659141344cd1fd0a4f28419497f9722a3daafe3b4186f6b6457e0600080a360805260a05263f7c618c160e01b82525afa90811561018957600091610140575b5060c052604051613cf290816101ea8239608051818181612ade0152613839015260a051818181610897015281816110ed01528181611b00015281816124ed0152613244015260c0518181816107ca01528181610f650152818161128a0152818161278701526130720152f35b6020813d602011610181575b81610159602093836101b0565b8101031261017d5751906001600160a01b038216820361017a5750386100d3565b80fd5b5080fd5b3d915061014c565b6040513d6000823e3d90fd5b631e4fbdf760e01b600052600060045260246000fd5b600080fd5b601f909101601f19168101906001600160401b038211908210176101d357604052565b634e487b7160e01b600052604160045260246000fdfe610120604052600436101561001357600080fd5b600060a05260a0513560e01c8063259467e814612f165780633d23b9ca14612eda5780634aa3567014612e8c5780635527bc7914612c605780635528484314612bf55780636536084314612b70578063715018a614612b0d57806372b3953214612ac757806389e04e0e14612a1c5780638b336ad5146129e05780638d977672146128165780638da5cb5b146127ec578063a8e0df7614612385578063a8f97d451461235d578063a97e5c931461231c578063abe0d3211461223e578063adf7346b14612220578063bd6dc51814611a29578063d7c973bb14611943578063e48a3a60146118bb578063e4dc4efc14611841578063e7d0543d1461115d578063e9f52a741461111c578063ec446c07146110d6578063efe4474c14611082578063f2fde38b14610fec578063f5a8707e14610f94578063f7c618c114610f4e578063f815909114610edf578063f85c96a8146101fd578063fcfe9a79146101a85763fdc3d8d71461018357600080fd5b346101a25760a0513660031901126101a2576020600254604051908152f35b60a05180fd5b346101a2576101b6366133e0565b9160a05152600960205263ffffffff604060a05120911660005260205260406000209060018060a01b0316600052602052602063ffffffff60406000205416604051908152f35b346101a25760a03660031901126101a2576102166133b7565b6044356001600160401b0381116101a2576102359036906004016134d2565b6064929192356001600160401b0381116101a2576102579036906004016134d2565b936084356001600160401b0381116101a2576102779036906004016134d2565b9060043560a0515260036020526004604060a051206102a060018060a01b03825416151561353b565b015460ff8160601c166003811015610a08576102d6916102c563ffffffff9215613578565b60401c1663ffffffff8816106135b2565b60043560a05152600460205260408060a0512060009063ffffffff891682526020522060ff6002820154166005811015610a0857600103610ea3576103196137a8565b9761032689511515613961565b60043560a051526006602052604060a0512063ffffffff891660005260205260408060002060009060018060a01b0333168252602052209560ff87541660048110159081610a085760018114918215610e94575b8215610e83575b505015610e4757818803610e1357848803610ddd578715610da5579260a0979491959297519760a05196600482549201546080525b868810610af9578b8b8b8b60043560a051526009602052604060a0512063ffffffff8416600052602052604060002060018060a01b0333166000526020526104098263ffffffff60406000205416613762565b60a0805160043590819052600960209081528251604080822063ffffffff8a8116600081815292865283832033808552908752848420805463ffffffff19169a90931699909917909155885460ff191660031790985593909152600a8252925183902094825293845281812092815291909252205460ff1615610a20575b63ffffffff60405191168152339063ffffffff8316907ede7a044ed6165553446654f02bbc8abb54cfffd6c2e59079e5dbf71999e6da602060043592a460043560a05152600b602052604060a0512063ffffffff821660005260205263ffffffff60406000205416608083019060ff8251161115610506575b60a05180f35b60043560a05152600460205260408060a0512060009063ffffffff8516825260205220600281019260ff8454166005811015610a0857600161054891146135ed565b835460ff191660021784556001820180549590949061138880880290881589830490911417156106c8576127106105819104809861373d565b6005909401546001600160a01b03169561059c871515613668565b60043560a05152600560205260408060a0512060009063ffffffff87168252602052209560a0519060a0518854905b8181106109955750505160ff168110610958578515158061094f575b610741575b50610140610639928963ffffffff938a60a05152600c602052604060a051206001600160401b0361061f818354166136c5565b166001600160401b031982541617905555015116426136a2565b815467ffffffffffffffff60881b191660889190911b67ffffffffffffffff60881b1617905560a0515b83548110156106f95761067681856134a4565b905460039190911b1c6001600160a01b031685811415806106e0575b6106a0575b50600101610663565b60a051526007602052604060a0512090815460001981019081116106c8576001925590610697565b634e487b7160e01b60a051526011600452602460a051fd5b508060a051526007602052604060a05120541515610692565b5090929363ffffffff9250604051938452602084015216907f476fc6e1cea59442d45e72ac3411929d358dce88edd991555d60bd6ad91a9407604060043592a4808080610500565b6107549086939796999598949299613c41565b9560a0515b865481101561091f5761076c81886134a4565b60018060a01b0391549060031b1c1660043560a05152600a60205260ff6040808c8160a0512063ffffffff6000921682526020522060009060018060a01b03851682526020522054166107c3575b50600101610759565b6107ee89827f00000000000000000000000000000000000000000000000000000000000000006139fd565b8060a05152600c60205260018a61086963ffffffff6040808060a05120946001600160401b03610820818854166136c5565b166001600160401b031987541617865560043560a0515260096020528160a051208460009216825260205220600090868060a01b0388168252602052205416825460c01c6136e3565b8154906001600160401b0360c01b9060c01b1690838060c01b0316178155016108938a82546136a2565b90557f00000000000000000000000000000000000000000000000000000000000000006001600160a01b0316803b156101a2576040519163208b9e4d60e21b83526004830152600160248301528160448160a0519360a051905af1801561091257156107ba5760a05161090591613483565b60a0516101a2578a6107ba565b6040513d60a051823e3d90fd5b5061063992959650610140908563ffffffff939599969a61094289600f546136a2565b600f5593505092506105ec565b508015156105e7565b60405162461bcd60e51b81526020600482015260156024820152744e6f7420656e6f7567682076616c696461746f727360581b6044820152606490fd5b60ff60406109a3838d6134a4565b60018060a01b0391549060031b1c1660043560a05152600a602052818b8160a0512063ffffffff6000921682526020522060009160018060a01b031682526020522054166109f4575b6001016105cb565b92610a006001916139bc565b9390506109ec565b634e487b7160e01b60a051526021600452602460a051fd5b60043560a051526009602052604060a0512063ffffffff8316600052602052604060002060018060a01b03331660005260205263ffffffff6040600020541663ffffffff61010085015116116104875760043560a05152600a602052604060a0512063ffffffff8316600052602052604060002060018060a01b0333166000526020526040600020600160ff1982541617905560043560a05152600b60205260408060a0512060009063ffffffff851682526020522063ffffffff610ae78183541661374a565b1663ffffffff19825416179055610487565b610b0e8888879e9a9e9d999c9d9b989b6139cb565b3563ffffffff81168082036101a25763ffffffff84168110610d725763ffffffff8460201c161115610d4057610b458d838c6139cb565b35604051906020820192600435845263ffffffff60e01b8b60e01b16604084015263ffffffff60e01b9060e01b166044830152604882015260488152610b8c606882613483565b519020848d1015610d28578c60051b84013560c052601e198436030160c05112156101a2576001600160401b0360c051850135116101a25760c0518401803560051b36036020909101136101a25760a0515060405160e052610bfb602060c05186013560051b0160e051613483565b60e0516101005260c05184013560e05152602060e051016101005236602060c05186013560051b60c05187010101116101a257602060c0518501015b60c0518501803560051b016020018110610d0e57509860a051995b60e051518b1015610ca05760e05160058c901b01602001519081811015610c8b5760a051526020526001604060a051205b9a0199610c52565b9060a051526020526001604060a05120610c83565b90939699509b999194979b9a9093969a60805103610cdd5763ffffffff1663ffffffff81146106c8576001809101990196939095929491946103b6565b60405162461bcd60e51b81526020600482015260096024820152682130b210383937b7b360b91b6044820152606490fd5b806020913561010051528161010051016101005201610c37565b634e487b7160e01b60a051526032600452602460a051fd5b60405162461bcd60e51b815260206004820152600a602482015269199c985b594f8f595b9960b21b6044820152606490fd5b60405162461bcd60e51b815260206004820152600b60248201526a199c985b594f1cdd185c9d60aa1b6044820152606490fd5b60405162461bcd60e51b815260206004820152601060248201526f32b6b83a3c903b30b634b230ba34b7b760811b6044820152606490fd5b60405162461bcd60e51b815260206004820152600e60248201526d0e0e4dedecc40dad2e6dac2e8c6d60931b6044820152606490fd5b60405162461bcd60e51b815260206004820152600c60248201526b0d8cadc40dad2e6dac2e8c6d60a31b6044820152606490fd5b60405162461bcd60e51b81526020600482015260146024820152732737ba103bb7b935b2b917bb30b634b230ba37b960611b6044820152606490fd5b909150610a08576002148b80610381565b5060a05160038214925061037a565b60405162461bcd60e51b8152602060048201526014602482015273139bc81cdbdb1d5d1a5bdb881c1c9bdc1bdcd95960621b6044820152606490fd5b346101a25760603660031901126101a257610ef86133b7565b6044359060043560a05152600560205263ffffffff604060a051209116600052602052604060002080548210156101a257602091610f35916134a4565b905460405160039290921b1c6001600160a01b03168152f35b346101a25760a0513660031901126101a2576040517f00000000000000000000000000000000000000000000000000000000000000006001600160a01b03168152602090f35b346101a257610fa2366133e0565b9160a05152600860205263ffffffff604060a05120911660005260205260406000209060018060a01b031660005260205260206001600160401b0360406000205416604051908152f35b346101a25760203660031901126101a2576110056133ca565b61100d613c18565b6001600160a01b0316801561106957600180546001600160a01b03198116831790915560a0516001600160a01b03909116907f8be0079c531659141344cd1fd0a4f28419497f9722a3daafe3b4186f6b6457e09080a360a05180f35b631e4fbdf760e01b60a0515260a051600452602460a051fd5b346101a257611090366133e0565b9160a05152600a60205263ffffffff604060a05120911660005260205260406000209060018060a01b0316600052602052602060ff604060002054166040519015158152f35b346101a25760a0513660031901126101a2576040517f00000000000000000000000000000000000000000000000000000000000000006001600160a01b03168152602090f35b346101a25760203660031901126101a2576001600160a01b0361113d6133ca565b1660a051526011602052602060ff604060a0512054166040519015158152f35b346101a25760c03660031901126101a2576001600160401b03600435116101a2573660236004350112156101a2576001600160401b0360043560040135116101a257366024600435600401356004350101116101a25760443563ffffffff811681036101a2576064359063ffffffff821682036101a2576084359063ffffffff821682036101a2576111ed6139db565b60a435156118115760043560040135156117e05763ffffffff811663ffffffff841611156117a55763ffffffff8216156117745763ffffffff6112308285613703565b16908163ffffffff84161161173e5761125261124a6137a8565b511515613961565b6112ae6040516323b872dd60e01b602082015233602482015230604482015260a435606482015260648152611288608482613483565b7f0000000000000000000000000000000000000000000000000000000000000000613c61565b600254936112bb856139bc565b60025560a080518690526003602052516040902080546001600160a01b0319163317815560018101546112ed90613417565b601f81116116e8575b5060a051601f600435600401351160011461165d5760a05160049291833584013561164e575b50823583013560011b90600019843585013560031b1c19161760018201555b602435600282015560a435600382015501805467ffffffffffffffff60681b4260681b166bffffffff0000000000000000604088901b166001600160a81b031990921663ffffffff86161767ffffffff00000000602086901b161791909117179055600d546001600160401b036113b381831661399f565b1677ffffffffffffffffffffffffffffffff00000000000000006001600160c01b03196113f663ffffffff891667ffffffffffffffff198616851760c01c6136e3565b60c01b1692161717600d5563ffffffff6040519160a083526004356004013560a08401526004356004013560246004350160c085013760a05160c06004356004013585010152818416602084015216604082015263ffffffff8416606082015260a435608082015260243590857fae17782d9dfdb457f1554e05be315573928eda717b62453f75d8de2d1d10dc94339260c081601f19601f6004356004013501168101030190a463ffffffff831680830493906114b59060a435613c41565b9463ffffffff82168087029087820414871517156106c8576114dd9060a4979695973561373d565b929463ffffffff60a051978185169006169368ffffffffffffffff004260081b169760001963ffffffff8616019563ffffffff87119063ffffffff8816995b63ffffffff84169063ffffffff891682101561163d5761155361153f8c83613762565b848410156116335760ff60015b1690613762565b846106c85763ffffffff92898f8f6001957f908dfa31020cc00f57b22ce26784a196253e8bacfaf1af134fc483994d735ee6926115a18e8e60609560a05150891460001461162957906136a2565b908560a051526004602052600260408060a051206000908a8252602052208b85168c198254161781556115f18a829067ffffffff0000000082549160201b169067ffffffff000000001916179055565b808b0184905501805468ffffffffffffffffff1916909117905560408051928a168352878a166020840152820152a39401169261151c565b5060a051906136a2565b60ff60a05161154c565b602088600160a05155604051908152f35b6024915083350101358861131c565b60a080516001840190525160208120909291600480350135601f19165b8085106116c857600480955035850135116116a6575b505060018235830135811b01600182015561133b565b602460001960f8863587013560031b161c199185350101351690558780611690565b60043582016024013583556020948501946001909301929091019061167a565b6001820160a05152602060a05120601f600435600401350160051c810160206004356004013510611737575b601f830160051c8201811061172a5750506112f6565b60a0518155600101611714565b5080611714565b60405162461bcd60e51b815260206004820152600e60248201526d746872656164733e6672616d657360901b6044820152606490fd5b60405162461bcd60e51b81526020600482015260096024820152680746872656164733d360bc1b6044820152606490fd5b60405162461bcd60e51b8152602060048201526013602482015272496e76616c6964206672616d652072616e676560681b6044820152606490fd5b60405162461bcd60e51b8152602060048201526009602482015268195b5c1d1e481d5c9b60ba1b6044820152606490fd5b60405162461bcd60e51b815260206004820152600860248201526707265776172643d360c41b6044820152606490fd5b346101a25760a0513660031901126101a257610120600d54600e54600f546001600160401b0360105492604051948281168652828160401c166020870152828160801c16604087015260c01c60608601528181166080860152818160401c1660a086015260801c1660c084015260e0830152610100820152f35b346101a25760203660031901126101a2576001600160a01b036118dc6133ca565b1660a05152600c60205260c0604060a051208054906002600182015491015490604051926001600160401b03811684526001600160401b038160401c1660208501526001600160401b038160801c166040850152841c6060840152608083015260a0820152f35b346101a25760403660031901126101a257604061195e6133b7565b60043560a0515260046020528160a0512063ffffffff600092168252602052208054600182015460028301549060ff8216936001600160401b03600382015416600560048301549201549263ffffffff60405196818116885260201c16602087015260408601526005861015610a08576001600160401b0360ff94610160976060880152818160081c166080880152818160481c1660a088015260881c1660c086015260e085015261010084015260018060a01b03811661012084015260a01c161515610140820152f35b346101a25760403660031901126101a257600435611a456133b7565b60a08051839052600360205251604090208054611a6c906001600160a01b0316151561353b565b60048101549160ff8360601c16906003821015610a085763ffffffff8091611a97611aa49415613578565b169360401c1683106135b2565b8260a051526004602052604060a051208260005260205260406000209060ff6002830154166005811015610a08576121e957611ade6137a8565b91611aeb83511515613961565b60405163c3c5a54760e01b81523360048201527f00000000000000000000000000000000000000000000000000000000000000006001600160a01b03169290602081602481875afa9081156109125760a051916121af575b5015612172576040516397f735d560e01b8152336004820152602081602481875afa9081156109125760a05191612138575b506121035760020154604051633a38cf9160e21b81523360048201526024810191909152602081604481865afa9081156109125760a051916120c9575b501561208f57604051630213119b60e51b8152336004820152602081602481865afa9081156109125760a0519161205d575b50602084015111612023576040516336e2701160e21b8152336004820152602081602481865afa9081156109125760a05191611ff1575b50604084015113611fbb573360a051526007602052604060a051205460ff60e0850151161115611f7657602060449260405193848092632a4e463d60e01b82523360048301527f0735c5123c545fb1079b2c831758b7fd7801678d4bdd0a16d4c8d420a26a8c5360248301525afa9182156109125760a05192611f3c575b506001015410611ef7578260a051526005602052604060a051208260005260205260ff60c0604060002054920151161115611ec3578160a051526006602052604060a051208160005260205260408060002060009060018060a01b03331682526020522060ff8154166004811015610a0857611e8a5760a08051825461ffff19166101011790925590839052600560209081529051604090819020600084815292529020805468010000000000000000811015611e7257611d5f916001820181556134a4565b81549060031b9033821b9160018060a01b03901b19161790553360a051526007602052604060a05120805490600182018092116106c857558160a051526008602052604060a0512081600052602052604060002060018060a01b03331660005260205260406000206001600160401b03804216166001600160401b03198254161790553360a05152601160205260ff604060a05120541615611e2c575b33917f324c984bd5e04c5ecaa315ba25a52f10569857764edbd1e49140a731ab42c25a60a05160a051a460a05180f35b3360a051526011602052604060a05120600160ff198254161790556012546001600160401b03611e5d81831661399f565b16906001600160401b03191617601255611dfc565b634e487b7160e01b60a051526041600452602460a051fd5b60405162461bcd60e51b8152602060048201526011602482015270105b1c9958591e481a5b881d1a1c995859607a1b6044820152606490fd5b60405162461bcd60e51b815260206004820152600c60248201526b15dbdc9ad95c9cc8199d5b1b60a21b6044820152606490fd5b60405162461bcd60e51b815260206004820152601760248201527f5265776172642062656c6f7720776f726b6572206d696e0000000000000000006044820152606490fd5b9091506020813d602011611f6e575b81611f5860209383613483565b81010312611f695751906001611c99565b600080fd5b3d9150611f4b565b60405162461bcd60e51b815260206004820152601760248201527f546f6f206d616e792061637469766520746872656164730000000000000000006044820152606490fd5b60405162461bcd60e51b815260206004820152600e60248201526d2637bb903932b83aba30ba34b7b760911b6044820152606490fd5b90506020813d60201161201b575b8161200c60209383613483565b810103126101a2575186611c1b565b3d9150611fff565b60405162461bcd60e51b8152602060048201526012602482015271496e73756666696369656e74207374616b6560701b6044820152606490fd5b90506020813d602011612087575b8161207860209383613483565b81010312611f69575186611be4565b3d915061206b565b60405162461bcd60e51b8152602060048201526012602482015271556e737570706f7274656420636f6e66696760701b6044820152606490fd5b90506020813d6020116120fb575b816120e460209383613483565b810103126101a2576120f59061377c565b86611bb2565b3d91506120d7565b60405162461bcd60e51b815260206004820152600d60248201526c15dbdc9ad95c8818985b9b9959609a1b6044820152606490fd5b90506020813d60201161216a575b8161215360209383613483565b810103126101a2576121649061377c565b87611b75565b3d9150612146565b60405162461bcd60e51b815260206004820152601560248201527415dbdc9ad95c881b9bdd081c9959da5cdd195c9959605a1b6044820152606490fd5b90506020813d6020116121e1575b816121ca60209383613483565b810103126101a2576121db9061377c565b87611b43565b3d91506121bd565b60405162461bcd60e51b815260206004820152600f60248201526e2a343932b0b2103737ba1037b832b760891b6044820152606490fd5b346101a25760a0513660031901126101a25760206040516113888152f35b346101a25760403660031901126101a2576122576133b7565b60043560a05152600560205263ffffffff604060a05120911660005260205260406000206040518060208354918281520190819360a05152602060a051209060a0515b8181106122fd57505050816122b0910382613483565b6040519182916020830190602084525180915260408301919060a0515b8181106122db575050500390f35b82516001600160a01b03168452859450602093840193909201916001016122cd565b82546001600160a01b031684526020909301926001928301920161229a565b346101a25760203660031901126101a2576001600160a01b0361233d6133ca565b1660a051526013602052602060ff604060a0512054166040519015158152f35b346101a25760a0513660031901126101a25760206001600160401b0360125416604051908152f35b346101a25760403660031901126101a2576004356123a16133b7565b903360a0515260136020526123be60ff604060a051205416613502565b6123c66139db565b60a080518290526003602052516040902080546123ed906001600160a01b0316151561353b565b60048101549260ff8460601c16906003821015610a085763ffffffff80916124186124259415613578565b169460401c1684106135b2565b8160a05152600460205260408060a05120600090858252602052209260028401805460ff81166005811015610a0857600261246091146135ed565b6001600160401b0360058701549161247e60ff8460a01c1615613628565b60881c164211156127b0576001600160a01b03169261249e841515613668565b600186018054835460ff1916600417909355600396909601805467ffffffffffffffff1916426001600160401b031617905581612774575b604051630213119b60e51b815260048101859052957f00000000000000000000000000000000000000000000000000000000000000006001600160a01b0316602088602481845afa9788156109125760a05198612740575b50876126d8575b803b156101a257604051633c9d984760e21b815260048101879052600a602482015260a0518160448183865af18015610912576126bf575b50803b156101a25760405190634464de6760e11b8252866004830152600160248301528160448160a0519360a051905af18015610912576126a6575b508460a051526007602052604060a051205461267d575b85926126739761266360057f54a9c6e3ff363d8a0bc51a5389fe20fd1eded33a75600c5b601eeaaaa34d17e19560409560a0519055600e5467ffffffffffffffff60401b6126186001600160401b03838a1c166136c5565b881b169067ffffffffffffffff60401b191617600e550161264263ffffffff825460201c1661374a565b67ffffffff0000000082549160201b169067ffffffff000000001916179055565b82519182526020820152a4613a3f565b60a0516001815580f35b8460a051526007602052604060a051209283549760001989019889116106c857979093556125c0565b60a0516126b291613483565b60a0516101a257876125a9565b60a0516126cb91613483565b60a0516101a2578861256d565b82546001600160a01b0316813b156101a25760405190632ae14eb560e01b8252876004830152896024830152604482015260a0518160648160a051865af1801561091257612727575b50612535565b60a05161273391613483565b60a0516101a25788612721565b9097506020813d60201161276c575b8161275c60209383613483565b81010312611f695751968861252e565b3d915061274f565b80546127ab9083906001600160a01b03167f00000000000000000000000000000000000000000000000000000000000000006139fd565b6124d6565b60405162461bcd60e51b8152602060048201526014602482015273111958591b1a5b99481b9bdd081c995858da195960621b6044820152606490fd5b346101a25760a0513660031901126101a2576001546040516001600160a01b039091168152602090f35b346101a25760203660031901126101a25760043560a051526003602052604060a0512060018060a01b03815416906001810190604051918260a05182549261285d84613417565b80845293600181169081156129be5750600114612974575b5061288292500383613483565b6002810154916003820154600483015490600560ff8360601c169401549460405196875261018060208801528351938461018089015260a0515b85811061295d57505060a0516101a085890101526040870152606086015263ffffffff8116608086015263ffffffff8160201c1660a086015263ffffffff8160401c1660c08601526003831015610a08576101a0936001600160401b0363ffffffff92879560e0870152818160681c1661010087015260a81c1661012085015281811661014085015260201c16610160830152601f80199101168101030190f35b8060208092840101516101a0828c010152016128bc565b905060a09291925152602060a051209060a051915b8183106129a25750509060206128829282010186612875565b6020919350806001915483858901015201910190918492612989565b90506020925061288294915060ff191682840152151560051b82010186612875565b346101a25760203660031901126101a2576001600160a01b03612a016133ca565b1660a0515260076020526020604060a0512054604051908152f35b346101a25760a0513660031901126101a257610160612a396137a8565b63ffffffff61014060405192805115158452602081015160208501526040810151604085015260ff606082015116606085015260ff608082015116608085015260ff60a08201511660a085015260ff60c08201511660c085015260ff60e08201511660e085015282610100820151166101008501528261012082015116610120850152015116610140820152f35b346101a25760a0513660031901126101a2576040517f00000000000000000000000000000000000000000000000000000000000000006001600160a01b03168152602090f35b346101a25760a0513660031901126101a257612b27613c18565b600180546001600160a01b0319811690915560a051906001600160a01b03167f8be0079c531659141344cd1fd0a4f28419497f9722a3daafe3b4186f6b6457e08280a360a05180f35b346101a25760403660031901126101a257612b896133ca565b602435908115158092036101a25760207f94c9cbe1d9aa7af08484f82ab0179d6db973a391236668c34192d954ff32c06c91612bc3613c18565b60018060a01b0316928360a0515260138252604060a0512060ff1981541660ff8316179055604051908152a260a05180f35b346101a257612c03366133e0565b9160a05152600660205263ffffffff604060a05120911660005260205260406000209060018060a01b031660005260205260406000205460ff8116604051906004811015610a085760409260ff91835260081c1615156020820152f35b346101a25760603660031901126101a257600435612c7c6133b7565b604435918060a0515260036020526004604060a05120612ca660018060a01b03825416151561353b565b01549160ff8360601c16906003821015610a085763ffffffff8091611a97612cce9415613578565b8060a05152600460205260408060a05120600090848252602052206002810160ff8154166005811015610a0857612e4f578415612e1d578260a051526006602052604060a051208460005260205260408060002060009060018060a01b0333168252602052209160ff8354166004811015610a0857600103612de457815460ff1990811660011783556004820187905560059190910180546001600160a01b03191633908117909155825470ffffffffffffffff00000000000000000019164260481b70ffffffffffffffff0000000000000000001617909255825416600217909155604051938452927f19bfc4c915343ae69b4cc50fe7df646946eb9af65aef9110f624ded8457c583590602090a460a05180f35b60405162461bcd60e51b81526020600482015260116024820152702737ba1030b1ba34bb32903bb7b935b2b960791b6044820152606490fd5b60405162461bcd60e51b815260206004820152600a602482015269115b5c1d1e481c9bdbdd60b21b6044820152606490fd5b60405162461bcd60e51b8152602060048201526015602482015274139bdd081bdc195b88199bdc881c1c9bdc1bdcd85b605a1b6044820152606490fd5b346101a25760403660031901126101a257612ea56133b7565b60043560a05152600b60205263ffffffff604060a051209116600052602052602063ffffffff60406000205416604051908152f35b346101a25760a0513660031901126101a25760206040517f0735c5123c545fb1079b2c831758b7fd7801678d4bdd0a16d4c8d420a26a8c538152f35b346101a25760403660031901126101a257600435612f326133b7565b903360a051526013602052612f4f60ff604060a051205416613502565b612f576139db565b8060a051526003602052604060a0512091612f7c60018060a01b03845416151561353b565b60048301549060ff8260601c16906003821015610a085763ffffffff8091612fa7612fb49415613578565b169260401c1682106135b2565b8160a051526004602052604060a0512060a051508160a05152602052604060a0512090600282019360ff8554166005811015610a08576002612ff691146135ed565b60058301805461300c60ff8260a01c1615613628565b6001600160a01b031693613021851515613668565b6001810191825497881561337f57805460ff19166003908117909155815460ff60a01b1916600160a01b179091558101805467ffffffffffffffff1916426001600160401b031617815561309688877f00000000000000000000000000000000000000000000000000000000000000006139fd565b6130a288600f546136a2565b600f558560a05152600c602052604060a05120906130cc6001600160401b03835460401c166136c5565b67ffffffffffffffff60401b83549160401b169067ffffffffffffffff60401b191617825561312063ffffffff61310c8554828082169160201c16613703565b166001600160401b03845460801c166136e3565b825467ffffffffffffffff60801b191660809190911b67ffffffffffffffff60801b16178255600182018054613157908b906136a2565b905560a080518990526008602090815281516040808220918a905290825282518181206001600160a01b038c16909152909152905120546001600160401b0316908115158061336c575b61333d575b505050600e54906001600160401b036131c08184166136c5565b1690613207826001600160401b03198516179182600e5554916001600160401b0363ffffffff6131fc8260801b95828082169160201c16613703565b169160801c166136e3565b60801b169177ffffffffffffffff0000000000000000ffffffffffffffff19161717600e558360a051526007602052604060a0512054613318575b7f00000000000000000000000000000000000000000000000000000000000000006001600160a01b0316803b156101a2576040519063208b9e4d60e21b8252856004830152600260248301528160448160a0519360a051905af196871561091257600587947f8529a8edd6ad34cbaeb7d7c69ac7d962f46509aaf97a4ee019219ae99bf3403b946020946126739b613306575b5060a05190550163ffffffff6132ed8183541661374a565b1663ffffffff19825416179055604051908152a4613a3f565b60a05161331291613483565b8b6132d5565b8360a051526007602052604060a0512080549060001982019182116106c85755613242565b6001600160401b036133576133629382600294541661371d565b1692019182546136a2565b90558780806131a6565b50816001600160401b03825416116131a1565b60405162461bcd60e51b815260206004820152601060248201526f139bc81dda5b9b995c881c995dd85c9960821b6044820152606490fd5b6024359063ffffffff82168203611f6957565b600435906001600160a01b0382168203611f6957565b6060906003190112611f69576004359060243563ffffffff81168103611f6957906044356001600160a01b0381168103611f695790565b90600182811c92168015613447575b602083101461343157565b634e487b7160e01b600052602260045260246000fd5b91607f1691613426565b61016081019081106001600160401b0382111761346d57604052565b634e487b7160e01b600052604160045260246000fd5b90601f801991011681019081106001600160401b0382111761346d57604052565b80548210156134bc5760005260206000200190600090565b634e487b7160e01b600052603260045260246000fd5b9181601f84011215611f69578235916001600160401b038311611f69576020808501948460051b010111611f6957565b1561350957565b60405162461bcd60e51b815260206004820152600a6024820152694e6f74206f7261636c6560b01b6044820152606490fd5b1561354257565b60405162461bcd60e51b815260206004820152600e60248201526d15185cdac81b9bdd08199bdd5b9960921b6044820152606490fd5b1561357f57565b60405162461bcd60e51b815260206004820152600b60248201526a15185cdac818db1bdcd95960aa1b6044820152606490fd5b156135b957565b60405162461bcd60e51b815260206004820152600c60248201526b109859081d1a1c995859125960a21b6044820152606490fd5b156135f457565b60405162461bcd60e51b815260206004820152600c60248201526b57726f6e672073746174757360a01b6044820152606490fd5b1561362f57565b60405162461bcd60e51b8152602060048201526011602482015270105b1c9958591e4818dbdb5c1b195d1959607a1b6044820152606490fd5b1561366f57565b60405162461bcd60e51b815260206004820152600b60248201526a273790383937b837b9b2b960a91b6044820152606490fd5b919082018092116136af57565b634e487b7160e01b600052601160045260246000fd5b6001600160401b036001911601906001600160401b0382116136af57565b906001600160401b03809116911601906001600160401b0382116136af57565b9063ffffffff8091169116039063ffffffff82116136af57565b906001600160401b03809116911603906001600160401b0382116136af57565b919082039182116136af57565b63ffffffff60019116019063ffffffff82116136af57565b9063ffffffff8091169116019063ffffffff82116136af57565b51908115158203611f6957565b519060ff82168203611f6957565b519063ffffffff82168203611f6957565b60006101406040516137b981613451565b8281528260208201528260408201528260608201528260808201528260a08201528260c08201528260e08201528261010082015282610120820152015260405163b588c20360e01b81527f0735c5123c545fb1079b2c831758b7fd7801678d4bdd0a16d4c8d420a26a8c5360048201526101608160248160018060a01b037f0000000000000000000000000000000000000000000000000000000000000000165afa9081156139555760009161386d575090565b9050610160813d821161394d575b816138896101609383613483565b81010312611f6957613944610140604051926138a484613451565b6138ad8161377c565b845260208101516020850152604081015160408501526138cf60608201613789565b60608501526138e060808201613789565b60808501526138f160a08201613789565b60a085015261390260c08201613789565b60c085015261391360e08201613789565b60e08501526139256101008201613797565b6101008501526139386101208201613797565b61012085015201613797565b61014082015290565b3d915061387b565b6040513d6000823e3d90fd5b1561396857565b60405162461bcd60e51b815260206004820152600f60248201526e135bd91d5b1948191a5cd8589b1959608a1b6044820152606490fd5b6001600160401b03166001600160401b0381146136af5760010190565b60001981146136af5760010190565b91908110156134bc5760051b0190565b6002600054146139ec576002600055565b633ee5aeb560e01b60005260046000fd5b60405163a9059cbb60e01b60208201526001600160a01b039092166024830152604480830193909352918152613a3d91613a38606483613483565b613c61565b565b8060005260036020526040600020600481019060ff825460601c166003811015613c0257613bfd5760050163ffffffff815460201c16613b635763ffffffff90541663ffffffff825460401c161115613a96575050565b805470ffffffffffffffff0000000000000000ff60601b19164260a81b67ffffffffffffffff60a81b1617600160601b1781557fae7f438a2a0ca58bc16ed0f35142d659a665c8c8a40f6e1136ad01bb21714ce6906040906001600160401b0390600d5467ffffffffffffffff60401b613b138483871c166136c5565b851b169067ffffffffffffffff60401b191617600d55613b4c82613b43835482808260681c169160a81c1661371d565b166010546136a2565b6010555460a81c16815190600182526020820152a2565b50805470ffffffffffffffff0000000000000000ff60601b19164260a81b67ffffffffffffffff60a81b1617600160611b1781557fae7f438a2a0ca58bc16ed0f35142d659a665c8c8a40f6e1136ad01bb21714ce6906040906001600160401b0390600d548260801b613bda848360801c166136c5565b60801b16908360801b191617600d555460a81c16815190600282526020820152a2565b505050565b634e487b7160e01b600052602160045260246000fd5b6001546001600160a01b03163303613c2c57565b63118cdaa760e01b6000523360045260246000fd5b8115613c4b570490565b634e487b7160e01b600052601260045260246000fd5b906000602091828151910182855af115613955576000513d613cb357506001600160a01b0381163b155b613c925750565b635274afe760e01b60009081526001600160a01b0391909116600452602490fd5b60011415613c8b56fea26469706673582212206b8f8674e57aa3431d833e27fb6f741ffe47a2e03ce68f967bdff010b38d1d6e64736f6c634300081c0033",
  "linkReferences": {},
  "deployedLinkReferences": {}
}