{
  "_format": "hh-sol-artifact-1",
  "contractName": "WorkerRegistry",
  "sourceName": "contracts/WorkerRegistry.sol",
  "abi": [
    {
      "inputs": [
        {
          "internalType": "contract IERC20",
          "name": "_stakeToken",
          "type": "address"
        }
      ],
      "stateMutability": "nonpayable",
      "type": "constructor"
    },
    {
      "inputs": [
        {
          "internalType": "address",
          "name": "owner",
          "type": "address"
        }
      ],
      "name": "OwnableInvalidOwner",
      "type": "error"
    },
    {
      "inputs": [
        {
          "internalType": "address",
          "name": "account",
          "type": "address"
        }
      ],
      "name": "OwnableUnauthorizedAccount",
      "type": "error"
    },
    {
      "inputs": [
        {
          "internalType": "address",
          "name": "token",
          "type": "address"
        }
      ],
      "name": "SafeERC20FailedOperation",
      "type": "error"
    },
    {
      "anonymous": false,
      "inputs": [
        {
          "indexed": true,
          "internalType": "address",
          "name": "worker",
          "type": "address"
        },
        {
          "indexed": true,
          "internalType": "bytes32",
          "name": "moduleKey",
          "type": "bytes32"
        },
        {
          "indexed": false,
          "internalType": "uint256",
          "name": "minReward",
          "type": "uint256"
        }
      ],
      "name": "MinRewardUpdated",
      "type": "event"
    },
    {
      "anonymous": false,
      "inputs": [
        {
          "indexed": true,
          "internalType": "address",
          "name": "module",
          "type": "address"
        },
        {
          "indexed": false,
          "internalType": "bool",
          "name": "authorized",
          "type": "bool"
        }
      ],
      "name": "ModuleAuthorizationUpdated",
      "type": "event"
    },
    {
      "anonymous": false,
      "inputs": [
        {
          "indexed": true,
          "internalType": "address",
          "name": "previousOwner",
          "type": "address"
        },
        {
          "indexed": true,
          "internalType": "address",
          "name": "newOwner",
          "type": "address"
        }
      ],
      "name": "OwnershipTransferred",
      "type": "event"
    },
    {
      "anonymous": false,
      "inputs": [
        {
          "indexed": true,
          "internalType": "address",
          "name": "worker",
          "type": "address"
        },
        {
          "indexed": false,
          "internalType": "int256",
          "name": "oldRep",
          "type": "int256"
        },
        {
          "indexed": false,
          "internalType": "int256",
          "name": "newRep",
          "type": "int256"
        }
      ],
      "name": "ReputationUpdated",
      "type": "event"
    },
    {
      "anonymous": false,
      "inputs": [
        {
          "indexed": true,
          "internalType": "address",
          "name": "worker",
          "type": "address"
        },
        {
          "indexed": false,
          "internalType": "uint256",
          "name": "amount",
          "type": "uint256"
        },
        {
          "indexed": false,
          "internalType": "uint256",
          "name": "newStake",
          "type": "uint256"
        }
      ],
      "name": "StakeDecreased",
      "type": "event"
    },
    {
      "anonymous": false,
      "inputs": [
        {
          "indexed": true,
          "internalType": "address",
          "name": "worker",
          "type": "address"
        },
        {
          "indexed": false,
          "internalType": "uint256",
          "name": "amount",
          "type": "uint256"
        },
        {
          "indexed": false,
          "internalType": "uint256",
          "name": "newStake",
          "type": "uint256"
        }
      ],
      "name": "StakeIncreased",
      "type": "event"
    },
    {
      "anonymous": false,
      "inputs": [
        {
          "indexed": true,
          "internalType": "address",
          "name": "worker",
          "type": "address"
        },
        {
          "indexed": false,
          "internalType": "uint256",
          "name": "amount",
          "type": "uint256"
        },
        {
          "indexed": false,
          "internalType": "uint256",
          "name": "newStake",
          "type": "uint256"
        },
        {
          "indexed": true,
          "internalType": "address",
          "name": "recipient",
          "type": "address"
        }
      ],
      "name": "StakeSlashed",
      "type": "event"
    },
    {
      "anonymous": false,
      "inputs": [
        {
          "indexed": true,
          "internalType": "address",
          "name": "worker",
          "type": "address"
        },
        {
          "indexed": false,
          "internalType": "bool",
          "name": "banned",
          "type": "bool"
        }
      ],
      "name": "WorkerBanned",
      "type": "event"
    },
    {
      "anonymous": false,
      "inputs": [
        {
          "indexed": true,
          "internalType": "address",
          "name": "worker",
          "type": "address"
        },
        {
          "indexed": true,
          "internalType": "bytes32",
          "name": "configId",
          "type": "bytes32"
        }
      ],
      "name": "WorkerConfigAdded",
      "type": "event"
    },
    {
      "anonymous": false,
      "inputs": [
        {
          "indexed": true,
          "internalType": "address",
          "name": "worker",
          "type": "address"
        },
        {
          "indexed": true,
          "internalType": "bytes32",
          "name": "configId",
          "type": "bytes32"
        }
      ],
      "name": "WorkerConfigRemoved",
      "type": "event"
    },
    {
      "anonymous": false,
      "inputs": [
        {
          "indexed": true,
          "internalType": "address",
          "name": "worker",
          "type": "address"
        }
      ],
      "name": "WorkerRegistered",
      "type": "event"
    },
    {
      "inputs": [
        {
          "internalType": "bytes32",
          "name": "configId",
          "type": "bytes32"
        }
      ],
      "name": "addConfiguration",
      "outputs": [],
      "stateMutability": "nonpayable",
      "type": "function"
    },
    {
      "inputs": [
        {
          "internalType": "address",
          "name": "worker",
          "type": "address"
        },
        {
          "internalType": "int256",
          "name": "amount",
          "type": "int256"
        }
      ],
      "name": "decreaseReputation",
      "outputs": [],
      "stateMutability": "nonpayable",
      "type": "function"
    },
    {
      "inputs": [
        {
          "internalType": "address",
          "name": "worker",
          "type": "address"
        }
      ],
      "name": "getConfigurations",
      "outputs": [
        {
          "internalType": "bytes32[]",
          "name": "",
          "type": "bytes32[]"
        }
      ],
      "stateMutability": "view",
      "type": "function"
    },
    {
      "inputs": [
        {
          "internalType": "address",
          "name": "worker",
          "type": "address"
        },
        {
          "internalType": "bytes32",
          "name": "moduleKey",
          "type": "bytes32"
        }
      ],
      "name": "getMinReward",
      "outputs": [
        {
          "internalType": "uint256",
          "name": "",
          "type": "uint256"
        }
      ],
      "stateMutability": "view",
      "type": "function"
    },
    {
      "inputs": [
        {
          "internalType": "address",
          "name": "worker",
          "type": "address"
        },
        {
          "internalType": "int256",
          "name": "amount",
          "type": "int256"
        }
      ],
      "name": "increaseReputation",
      "outputs": [],
      "stateMutability": "nonpayable",
      "type": "function"
    },
    {
      "inputs": [
        {
          "internalType": "address",
          "name": "worker",
          "type": "address"
        }
      ],
      "name": "isBanned",
      "outputs": [
        {
          "internalType": "bool",
          "name": "",
          "type": "bool"
        }
      ],
      "stateMutability": "view",
      "type": "function"
    },
    {
      "inputs": [
        {
          "internalType": "address",
          "name": "worker",
          "type": "address"
        },
        {
          "internalType": "bytes32",
          "name": "configId",
          "type": "bytes32"
        },
        {
          "internalType": "uint256",
          "name": "minStake",
          "type": "uint256"
        },
        {
          "internalType": "int256",
          "name": "minReputation",
          "type": "int256"
        }
      ],
      "name": "isEligibleForConfig",
      "outputs": [
        {
          "internalType": "bool",
          "name": "",
          "type": "bool"
        }
      ],
      "stateMutability": "view",
      "type": "function"
    },
    {
      "inputs": [
        {
          "internalType": "address",
          "name": "",
          "type": "address"
        }
      ],
      "name": "isModuleAuthorized",
      "outputs": [
        {
          "internalType": "bool",
          "name": "",
          "type": "bool"
        }
      ],
      "stateMutability": "view",
      "type": "function"
    },
    {
      "inputs": [
        {
          "internalType": "address",
          "name": "worker",
          "type": "address"
        }
      ],
      "name": "isRegistered",
      "outputs": [
        {
          "internalType": "bool",
          "name": "",
          "type": "bool"
        }
      ],
      "stateMutability": "view",
      "type": "function"
    },
    {
      "inputs": [],
      "name": "owner",
      "outputs": [
        {
          "internalType": "address",
          "name": "",
          "type": "address"
        }
      ],
      "stateMutability": "view",
      "type": "function"
    },
    {
      "inputs": [],
      "name": "registerWorker",
      "outputs": [],
      "stateMutability": "nonpayable",
      "type": "function"
    },
    {
      "inputs": [
        {
          "internalType": "bytes32",
          "name": "configId",
          "type": "bytes32"
        }
      ],
      "name": "removeConfiguration",
      "outputs": [],
      "stateMutability": "nonpayable",
      "type": "function"
    },
    {
      "inputs": [],
      "name": "renounceOwnership",
      "outputs": [],
      "stateMutability": "nonpayable",
      "type": "function"
    },
    {
      "inputs": [
        {
          "internalType": "address",
          "name": "worker",
          "type": "address"
        }
      ],
      "name": "reputationOf",
      "outputs": [
        {
          "internalType": "int256",
          "name": "",
          "type": "int256"
        }
      ],
      "stateMutability": "view",
      "type": "function"
    },
    {
      "inputs": [
        {
          "internalType": "address",
          "name": "worker",
          "type": "address"
        },
        {
          "internalType": "bool",
          "name": "banned_",
          "type": "bool"
        }
      ],
      "name": "setBanned",
      "outputs": [],
      "stateMutability": "nonpayable",
      "type": "function"
    },
    {
      "inputs": [
        {
          "internalType": "bytes32",
          "name": "moduleKey",
          "type": "bytes32"
        },
        {
          "internalType": "uint256",
          "name": "amount",
          "type": "uint256"
        }
      ],
      "name": "setMinReward",
      "outputs": [],
      "stateMutability": "nonpayable",
      "type": "function"
    },
    {
      "inputs": [
        {
          "internalType": "address",
          "name": "module",
          "type": "address"
        },
        {
          "internalType": "bool",
          "name": "authorized",
          "type": "bool"
        }
      ],
      "name": "setModuleAuthorized",
      "outputs": [],
      "stateMutability": "nonpayable",
      "type": "function"
    },
    {
      "inputs": [
        {
          "internalType": "address",
          "name": "worker",
          "type": "address"
        },
        {
          "internalType": "uint256",
          "name": "amount",
          "type": "uint256"
        },
        {
          "internalType": "address",
          "name": "recipient",
          "type": "address"
        }
      ],
      "name": "slashStake",
      "outputs": [],
      "stateMutability": "nonpayable",
      "type": "function"
    },
    {
      "inputs": [
        {
          "internalType": "uint256",
          "name": "amount",
          "type": "uint256"
        }
      ],
      "name": "stake",
      "outputs": [],
      "stateMutability": "nonpayable",
      "type": "function"
    },
    {
      "inputs": [
        {
          "internalType": "address",
          "name": "worker",
          "type": "address"
        }
      ],
      "name": "stakeOf",
      "outputs": [
        {
          "internalType": "uint256",
          "name": "",
          "type": "uint256"
        }
      ],
      "stateMutability": "view",
      "type": "function"
    },
    {
      "inputs": [],
      "name": "stakeToken",
      "outputs": [
        {
          "internalType": "contract IERC20",
          "name": "",
          "type": "address"
        }
      ],
      "stateMutability": "view",
      "type": "function"
    },
    {
      "inputs": [
        {
          "internalType": "address",
          "name": "worker",
          "type": "address"
        },
        {
          "internalType": "bytes32",
          "name": "configId",
          "type": "bytes32"
        }
      ],
      "name": "supportsConfig",
      "outputs": [
        {
          "internalType": "bool",
          "name": "",
          "type": "bool"
        }
      ],
      "stateMutability": "view",
      "type": "function"
    },
    {
      "inputs": [
        {
          "internalType": "address",
          "name": "newOwner",
          "type": "address"
        }
      ],
      "name": "transferOwnership",
      "outputs": [],
      "stateMutability": "nonpayable",
      "type": "function"
    },
    {
      "inputs": [
        {
          "internalType": "uint256",
          "name": "amount",
          "type": "uint256"
        }
      ],
      "name": "unstake",
      "outputs": [],
      "stateMutability": "nonpayable",
      "type": "function"
    }
  ],
  "bytecode": "0x60a03461011d57601f6112d638819003918201601f19168301916001600160401b038311848410176101225780849260209460405283398101031261011d57516001600160a01b03811680820361011d5733156101075760008054336001600160a01b0319821681178355604051939290916001600160a01b0316907f8be0079c531659141344cd1fd0a4f28419497f9722a3daafe3b4186f6b6457e09080a3156100d5575060805260405161119d908161013982396080518181816105b50152818161094101528181610a340152610b880152f35b62461bcd60e51b815260206004820152600d60248201526c24b73b30b634b2103a37b5b2b760991b6044820152606490fd5b631e4fbdf760e01b600052600060045260246000fd5b600080fd5b634e487b7160e01b600052604160045260246000fdfe608080604052600436101561001357600080fd5b60003560e01c908163208082bf14610c3c575080632a4e463d14610bf45780632ae14eb514610ac55780632e17de78146109dc578063426233601461099f5780634e1dbc3e1461097057806351ed6a301461092b5780636431d690146108c0578063715018a614610867578063822e7934146107c257806385d2589d1461078357806388c9bcce146107025780638a32f08a146106885780638da5cb5b1461065f57806397f735d51461061d578063a694fc3a14610555578063af69586f146104c9578063c3c5a5471461048a578063cc21ade014610392578063cfe0a4a514610307578063db89c044146102ca578063e8e33e4414610271578063f276611c146101b55763f2fde38b1461012757600080fd5b346101b05760203660031901126101b057610140610cd0565b610148610f89565b6001600160a01b0316801561019a57600080546001600160a01b03198116831782556001600160a01b0316907f8be0079c531659141344cd1fd0a4f28419497f9722a3daafe3b4186f6b6457e09080a3005b631e4fbdf760e01b600052600060045260246000fd5b600080fd5b346101b05760403660031901126101b0576101ce610cd0565b6024353360005260036020526101eb60ff60406000205416610d15565b6101f760008213610e5e565b600161020283610ee6565b01805492600083850393128484128116908585139015161761025b57827f16d27e2cff7b6c62796ec35e40b30e11f94675cc9fded1762c7c11aaa15cb22093604093558251948552602085015260018060a01b031692a2005b634e487b7160e01b600052601160045260246000fd5b346101b05760403660031901126101b0576001600160a01b03610292610cd0565b16600052600160205260206102c0602435600360406000200160019160005201602052604060002054151590565b6040519015158152f35b346101b05760203660031901126101b0576001600160a01b036102eb610cd0565b1660005260016020526020600160406000200154604051908152f35b346101b05760203660031901126101b05760043561033081600361032a33610ee6565b01611112565b1561035d57337f58495aed7af7e6cfdd1db9b7513baae830069bddd768bf9cddb96c93182bd909600080a3005b60405162461bcd60e51b815260206004820152600d60248201526c436f6e6669672065786973747360981b6044820152606490fd5b346101b05760203660031901126101b0576001600160a01b036103b3610cd0565b16600052600160205260036040600020018054906103d082610ece565b916103de6040519384610e96565b8083526103ea81610ece565b602084019290601f190136843760005b8281106104465783856040519182916020830190602084525180915260408301919060005b81811061042d575050500390f35b825184528594506020938401939092019160010161041f565b6104508183611019565b90549060031b1c9085518110156104745760019160208260051b88010152016103fa565b634e487b7160e01b600052603260045260246000fd5b346101b05760203660031901126101b0576001600160a01b036104ab610cd0565b166000526001602052602060ff604060002054166040519015158152f35b346101b05760203660031901126101b0576004356104f28160036104ec33610ee6565b01611031565b1561051f57337fc98a982aafccda0db943a8687af49e9c66a9387dfe384a6c1e53a24606d57676600080a3005b60405162461bcd60e51b815260206004820152600e60248201526d436f6e666967206d697373696e6760901b6044820152606490fd5b346101b05760203660031901126101b057600435610574811515610d66565b600261057f33610ee6565b6105d96040516323b872dd60e01b6020820152336024820152306044820152846064820152606481526105b3608482610e96565b7f0000000000000000000000000000000000000000000000000000000000000000610fb2565b0180549082820180921161025b5781905560405191825260208201527fe6afb5ca7cc84435baf09da39fcb42fc0fb8bdfef6c3ff2ce9fce2c70a18f82160403392a2005b346101b05760203660031901126101b0576001600160a01b0361063e610cd0565b166000526001602052602060ff60406000205460081c166040519015158152f35b346101b05760003660031901126101b0576000546040516001600160a01b039091168152602090f35b346101b05760403660031901126101b0576004356024356106b860ff6106ad33610ee6565b5460081c1615610d9d565b336000526002602052604060002082600052602052806040600020556040519081527ffbe95b4fc655e44823086ecb12fcac034a79c16ca9f708c90c03e3041460425d60203392a3005b346101b05760207f899b0bd5498bfa1a52ab9d35a24cc2bb48e5508431a48f4574189e976a1c0daa61073336610ce6565b9290336000526003825261074e60ff60406000205416610d15565b61075781610ee6565b805461ff001916941515600881901b61ff00169590951790556040519384526001600160a01b031692a2005b346101b05760203660031901126101b0576001600160a01b036107a4610cd0565b166000526003602052602060ff604060002054166040519015158152f35b346101b05760403660031901126101b0576107db610cd0565b6024353360005260036020526107f860ff60406000205416610d15565b61080460008213610e5e565b600161080f83610ee6565b018054928284019283126000851290801582169115161761025b57827f16d27e2cff7b6c62796ec35e40b30e11f94675cc9fded1762c7c11aaa15cb22093604093558251948552602085015260018060a01b031692a2005b346101b05760003660031901126101b057610880610f89565b600080546001600160a01b0319811682556001600160a01b03167f8be0079c531659141344cd1fd0a4f28419497f9722a3daafe3b4186f6b6457e08280a3005b346101b05760207fcb29ab590819cd2db0d1579a18d3b436aa55c8cba348bb15adf19163caa5a1226108f136610ce6565b92906108fb610f89565b60018060a01b031692836000526003825260406000209015159060ff1981541660ff8316179055604051908152a2005b346101b05760003660031901126101b0576040517f00000000000000000000000000000000000000000000000000000000000000006001600160a01b03168152602090f35b346101b05760803660031901126101b05760206102c061098e610cd0565b606435906044359060243590610dd9565b346101b05760203660031901126101b0576001600160a01b036109c0610cd0565b1660005260016020526020600260406000200154604051908152f35b346101b05760203660031901126101b0576004356109fb811515610d66565b6002610a0633610ee6565b610a1760ff825460081c1615610d9d565b018054828110610a8c5782610a2b91610d59565b8155610a5882337f0000000000000000000000000000000000000000000000000000000000000000610f47565b5460405191825260208201527f3c3bf06223167c735090f086f81aa7fb429e136c104164154bb5f0f079108bd960403392a2005b60405162461bcd60e51b8152602060048201526011602482015270139bdd08195b9bdd59da081cdd185ad959607a1b6044820152606490fd5b346101b05760603660031901126101b057610ade610cd0565b6044356001600160a01b038116916024358383036101b057336000526003602052610b1060ff60406000205416610d15565b80928415610bbb576002610b2384610ee6565b01918254809111610bb3575b917ff2717be2f27d9d2d7d265e42dc556e40d2d9aeaba02f49c5286030f30c0571f39391610b5f86604095610d59565b82558580610b82575b505054825194855260208501526001600160a01b031692a3005b610bac917f0000000000000000000000000000000000000000000000000000000000000000610f47565b8685610b68565b935083610b2f565b60405162461bcd60e51b8152602060048201526011602482015270125b9d985b1a59081c9958da5c1a595b9d607a1b6044820152606490fd5b346101b05760403660031901126101b0576001600160a01b03610c15610cd0565b16600052600260205260406000206024356000526020526020604060002054604051908152f35b346101b05760003660031901126101b05733600052600160205260406000209081549060ff8216610c99575060ff19166001179055337f39e7e6ae07d889bdbff877aba3aa77fb0f33f79807df2c91a0ac6059849e3e0e600080a2005b62461bcd60e51b8152602060048201526012602482015271105b1c9958591e481c9959da5cdd195c995960721b6044820152606490fd5b600435906001600160a01b03821682036101b057565b60409060031901126101b0576004356001600160a01b03811681036101b0579060243580151581036101b05790565b15610d1c57565b60405162461bcd60e51b81526020600482015260156024820152744e6f7420617574686f72697a6564206d6f64756c6560581b6044820152606490fd5b9190820391821161025b57565b15610d6d57565b60405162461bcd60e51b81526020600482015260086024820152670616d6f756e743d360c41b6044820152606490fd5b15610da457565b60405162461bcd60e51b815260206004820152600d60248201526c15dbdc9ad95c8818985b9b9959609a1b6044820152606490fd5b6001600160a01b0316600090815260016020526040902080549092919060ff811615610e545760081c60ff16610e4b57600090815260048301602052604090205415610e4357600282015410610e3c576001015412610e3757600190565b600090565b5050600090565b505050600090565b50505050600090565b5050505050600090565b15610e6557565b60405162461bcd60e51b81526020600482015260096024820152680616d6f756e743c3d360bc1b6044820152606490fd5b90601f8019910116810190811067ffffffffffffffff821117610eb857604052565b634e487b7160e01b600052604160045260246000fd5b67ffffffffffffffff8111610eb85760051b60200190565b6001600160a01b03166000908152600160205260409020805460ff1615610f0a5790565b60405162461bcd60e51b815260206004820152601560248201527415dbdc9ad95c881b9bdd081c9959da5cdd195c9959605a1b6044820152606490fd5b60405163a9059cbb60e01b60208201526001600160a01b039092166024830152604480830193909352918152610f8791610f82606483610e96565b610fb2565b565b6000546001600160a01b03163303610f9d57565b63118cdaa760e01b6000523360045260246000fd5b906000602091828151910182855af11561100d576000513d61100457506001600160a01b0381163b155b610fe35750565b635274afe760e01b60009081526001600160a01b0391909116600452602490fd5b60011415610fdc565b6040513d6000823e3d90fd5b80548210156104745760005260206000200190600090565b9060018201918160005282602052604060002054801515600014610e4b57600019810181811161025b57825460001981019190821161025b578181036110c4575b505050805480156110ae57600019019061108c8282611019565b8154906000199060031b1b191690555560005260205260006040812055600190565b634e487b7160e01b600052603160045260246000fd5b6110fb6110d46110e49386611019565b90549060031b1c92839286611019565b819391549060031b91821b91600019901b19161790565b905560005283602052604060002055388080611072565b6000828152600182016020526040902054610e3c5780549068010000000000000000821015610eb857826111506110e4846001809601855584611019565b90558054926000520160205260406000205560019056fea2646970667358221220ab0910b31276ff4d9007266fce46671486be527c3ceade261a0e8cb264d76cc964736f6c634300081c0033",
  "linkReferences": {},
  "deployedLinkReferences": {}
}